{"abi":[{"type":"function","name":"EVM_EXTRA_ARGS_V1_TAG","inputs":[],"outputs":[{"name":"","type":"bytes4","internalType":"bytes4"}],"stateMutability":"view"},{"type":"function","name":"GENERIC_EXTRA_ARGS_V2_TAG","inputs":[],"outputs":[{"name":"","type":"bytes4","internalType":"bytes4"}],"stateMutability":"view"},{"type":"function","name":"SVM_EXTRA_ARGS_MAX_ACCOUNTS","inputs":[],"outputs":[{"name":"","type":"uint256","internalType":"uint256"}],"stateMutability":"view"},{"type":"function","name":"SVM_EXTRA_ARGS_V1_TAG","inputs":[],"outputs":[{"name":"","type":"bytes4","internalType":"bytes4"}],"stateMutability":"view"}],"bytecode":{"object":"0x60808060405234601957610177908161001e823930815050f35b5f80fdfe6080806040526004361015610012575f80fd5b5f3560e01c9081631ac428f814610145575080633ab8c0d0146100f25780637498e3551461009f5763a5dd87d814610048575f80fd5b5f7ffffffffffffffffffffffffffffffffffffffffffffffffffffffffffffffffc36011261009b5760206040517f1f3b3aba000000000000000000000000000000000000000000000000000000008152f35b5f80fd5b5f7ffffffffffffffffffffffffffffffffffffffffffffffffffffffffffffffffc36011261009b5760206040517f181dcf10000000000000000000000000000000000000000000000000000000008152f35b5f7ffffffffffffffffffffffffffffffffffffffffffffffffffffffffffffffffc36011261009b5760206040517f97a657c9000000000000000000000000000000000000000000000000000000008152f35b5f7ffffffffffffffffffffffffffffffffffffffffffffffffffffffffffffffffc36011261009b5780604060209252f3","linkReferences":{}},"methodIdentifiers":{"EVM_EXTRA_ARGS_V1_TAG()":"3ab8c0d0","GENERIC_EXTRA_ARGS_V2_TAG()":"7498e355","SVM_EXTRA_ARGS_MAX_ACCOUNTS()":"1ac428f8","SVM_EXTRA_ARGS_V1_TAG()":"a5dd87d8"},"id":3}