{"abi":[{"type":"function","name":"EVM_EXTRA_ARGS_V1_TAG","inputs":[],"outputs":[{"name":"","type":"bytes4","internalType":"bytes4"}],"stateMutability":"view"},{"type":"function","name":"GENERIC_EXTRA_ARGS_V2_TAG","inputs":[],"outputs":[{"name":"","type":"bytes4","internalType":"bytes4"}],"stateMutability":"view"},{"type":"function","name":"SVM_EXTRA_ARGS_MAX_ACCOUNTS","inputs":[],"outputs":[{"name":"","type":"uint256","internalType":"uint256"}],"stateMutability":"view"},{"type":"function","name":"SVM_EXTRA_ARGS_V1_TAG","inputs":[],"outputs":[{"name":"","type":"bytes4","internalType":"bytes4"}],"stateMutability":"view"}],"bytecode":{"object":"0x6080806040523460185760e4908161001d823930815050f35b5f80fdfe60808060405260043610156011575f80fd5b5f3560e01c9081631ac428f814609b575080633ab8c0d014607f5780637498e3551460635763a5dd87d8146043575f80fd5b5f366003190112605f57604051630f9d9d5d60e11b8152602090f35b5f80fd5b5f366003190112605f57604051630181dcf160e41b8152602090f35b5f366003190112605f576040516397a657c960e01b8152602090f35b5f366003190112605f5780604060209252f3fea2646970667358221220ccf3a2942d1a9485fb83f8fcdf08dcf1ca0684df17a62a2d87ff9f7c5fd489fd64736f6c634300081e0033","linkReferences":{}},"methodIdentifiers":{"EVM_EXTRA_ARGS_V1_TAG()":"3ab8c0d0","GENERIC_EXTRA_ARGS_V2_TAG()":"7498e355","SVM_EXTRA_ARGS_MAX_ACCOUNTS()":"1ac428f8","SVM_EXTRA_ARGS_V1_TAG()":"a5dd87d8"},"id":2}