{"abi":[{"type":"function","name":"EXTRA_ARGS_V1_TAG","inputs":[],"outputs":[{"name":"","type":"bytes4","internalType":"bytes4"}],"stateMutability":"view"}],"bytecode":{"object":"0x6080806040523460175760769081601c823930815050f35b5f80fdfe60808060405260043610156011575f80fd5b5f3560e01c63f7514ab4146023575f80fd5b5f366003190112603c5763125fa26760e31b8152602090f35b5f80fdfea26469706673582212206b5812a4e655b102838e54e9f0abd1918efa135082cf8cadf1e7d703ef4276f164736f6c634300081e0033","linkReferences":{}},"methodIdentifiers":{"EXTRA_ARGS_V1_TAG()":"f7514ab4"},"id":7}