{"abi":[{"type":"function","name":"EXTRA_ARGS_V1_TAG","inputs":[],"outputs":[{"name":"","type":"bytes4","internalType":"bytes4"}],"stateMutability":"view"}],"bytecode":{"object":"0x6080806040523460175760779081601c823930815050f35b5f80fdfe60808060405260043610156011575f80fd5b5f3560e01c63f7514ab4146023575f80fd5b5f7ffffffffffffffffffffffffffffffffffffffffffffffffffffffffffffffffc360112607357807f92fd13380000000000000000000000000000000000000000000000000000000060209252f35b5f80fd","linkReferences":{}},"methodIdentifiers":{"EXTRA_ARGS_V1_TAG()":"f7514ab4"},"id":12}