{"abi":[{"type":"constructor","inputs":[{"name":"_ccipRouter","type":"address","internalType":"address"},{"name":"_currentChainSelector","type":"uint64","internalType":"uint64"},{"name":"_nftContract","type":"address","internalType":"address"},{"name":"_existingBoneToken","type":"address","internalType":"address"},{"name":"_devAddress","type":"address","internalType":"address payable"},{"name":"_fundingAddresses","type":"address[5]","internalType":"address payable[5]"},{"name":"_existingBoneEthPoolKey","type":"tuple","internalType":"struct PoolKey","components":[{"name":"currency0","type":"address","internalType":"Currency"},{"name":"currency1","type":"address","internalType":"Currency"},{"name":"fee","type":"uint24","internalType":"uint24"},{"name":"tickSpacing","type":"int24","internalType":"int24"},{"name":"hooks","type":"address","internalType":"contract IHooks"}]},{"name":"_ethUsdPriceFeed","type":"address","internalType":"address"}],"stateMutability":"nonpayable"},{"type":"receive","stateMutability":"payable"},{"type":"function","name":"BURN_SHARE","inputs":[],"outputs":[{"name":"","type":"uint8","internalType":"uint8"}],"stateMutability":"view"},{"type":"function","name":"DEAD_ADDRESS","inputs":[],"outputs":[{"name":"","type":"address","internalType":"address"}],"stateMutability":"view"},{"type":"function","name":"DEV_SHARE","inputs":[],"outputs":[{"name":"","type":"uint8","internalType":"uint8"}],"stateMutability":"view"},{"type":"function","name":"ENTRY_FEE_BONE","inputs":[],"outputs":[{"name":"","type":"uint256","internalType":"uint256"}],"stateMutability":"view"},{"type":"function","name":"FUNDING_SHARE","inputs":[],"outputs":[{"name":"","type":"uint8","internalType":"uint8"}],"stateMutability":"view"},{"type":"function","name":"MAX_BONE_PER_ETH","inputs":[],"outputs":[{"name":"","type":"uint256","internalType":"uint256"}],"stateMutability":"view"},{"type":"function","name":"MAX_PLAYERS","inputs":[],"outputs":[{"name":"","type":"uint8","internalType":"uint8"}],"stateMutability":"view"},{"type":"function","name":"MAX_SLIPPAGE","inputs":[],"outputs":[{"name":"","type":"uint256","internalType":"uint256"}],"stateMutability":"view"},{"type":"function","name":"MIN_BONE_PER_ETH","inputs":[],"outputs":[{"name":"","type":"uint256","internalType":"uint256"}],"stateMutability":"view"},{"type":"function","name":"MIN_SLIPPAGE","inputs":[],"outputs":[{"name":"","type":"uint256","internalType":"uint256"}],"stateMutability":"view"},{"type":"function","name":"PERMIT2","inputs":[],"outputs":[{"name":"","type":"address","internalType":"address"}],"stateMutability":"view"},{"type":"function","name":"POINTS_PER_ENTRY","inputs":[],"outputs":[{"name":"","type":"uint8","internalType":"uint8"}],"stateMutability":"view"},{"type":"function","name":"POOL_MANAGER","inputs":[],"outputs":[{"name":"","type":"address","internalType":"address"}],"stateMutability":"view"},{"type":"function","name":"UNIVERSAL_ROUTER","inputs":[],"outputs":[{"name":"","type":"address","internalType":"address"}],"stateMutability":"view"},{"type":"function","name":"WINNERS_SHARE","inputs":[],"outputs":[{"name":"","type":"uint8","internalType":"uint8"}],"stateMutability":"view"},{"type":"function","name":"_performSwap","inputs":[{"name":"boneAmountOut","type":"uint256","internalType":"uint256"},{"name":"maxEthIn","type":"uint256","internalType":"uint256"}],"outputs":[{"name":"ethUsed","type":"uint256","internalType":"uint256"}],"stateMutability":"nonpayable"},{"type":"function","name":"allowedChains","inputs":[{"name":"","type":"uint64","internalType":"uint64"}],"outputs":[{"name":"","type":"bool","internalType":"bool"}],"stateMutability":"view"},{"type":"function","name":"baseSlippage","inputs":[],"outputs":[{"name":"","type":"uint256","internalType":"uint256"}],"stateMutability":"view"},{"type":"function","name":"boneEthPoolKey","inputs":[],"outputs":[{"name":"currency0","type":"address","internalType":"Currency"},{"name":"currency1","type":"address","internalType":"Currency"},{"name":"fee","type":"uint24","internalType":"uint24"},{"name":"tickSpacing","type":"int24","internalType":"int24"},{"name":"hooks","type":"address","internalType":"contract IHooks"}],"stateMutability":"view"},{"type":"function","name":"boneToken","inputs":[],"outputs":[{"name":"","type":"address","internalType":"contract IERC20"}],"stateMutability":"view"},{"type":"function","name":"callbackGasLimit","inputs":[],"outputs":[{"name":"","type":"uint32","internalType":"uint32"}],"stateMutability":"view"},{"type":"function","name":"canEnterWithETH","inputs":[],"outputs":[{"name":"available","type":"bool","internalType":"bool"},{"name":"status","type":"string","internalType":"string"}],"stateMutability":"view"},{"type":"function","name":"ccipReceive","inputs":[{"name":"message","type":"tuple","internalType":"struct Client.Any2EVMMessage","components":[{"name":"messageId","type":"bytes32","internalType":"bytes32"},{"name":"sourceChainSelector","type":"uint64","internalType":"uint64"},{"name":"sender","type":"bytes","internalType":"bytes"},{"name":"data","type":"bytes","internalType":"bytes"},{"name":"destTokenAmounts","type":"tuple[]","internalType":"struct Client.EVMTokenAmount[]","components":[{"name":"token","type":"address","internalType":"address"},{"name":"amount","type":"uint256","internalType":"uint256"}]}]}],"outputs":[],"stateMutability":"nonpayable"},{"type":"function","name":"chainContracts","inputs":[{"name":"","type":"uint64","internalType":"uint64"}],"outputs":[{"name":"","type":"address","internalType":"address"}],"stateMutability":"view"},{"type":"function","name":"completeRound","inputs":[{"name":"roundId","type":"uint256","internalType":"uint256"}],"outputs":[],"stateMutability":"nonpayable"},{"type":"function","name":"configuredChains","inputs":[{"name":"","type":"uint256","internalType":"uint256"}],"outputs":[{"name":"","type":"uint64","internalType":"uint64"}],"stateMutability":"view"},{"type":"function","name":"contractAdmin","inputs":[],"outputs":[{"name":"","type":"address","internalType":"address"}],"stateMutability":"view"},{"type":"function","name":"currentChainSelector","inputs":[],"outputs":[{"name":"","type":"uint64","internalType":"uint64"}],"stateMutability":"view"},{"type":"function","name":"currentRoundId","inputs":[],"outputs":[{"name":"","type":"uint128","internalType":"uint128"}],"stateMutability":"view"},{"type":"function","name":"devAddress","inputs":[],"outputs":[{"name":"","type":"address","internalType":"address payable"}],"stateMutability":"view"},{"type":"function","name":"distributePrizes","inputs":[{"name":"roundId","type":"uint256","internalType":"uint256"}],"outputs":[],"stateMutability":"nonpayable"},{"type":"function","name":"enterWithBone","inputs":[],"outputs":[],"stateMutability":"nonpayable"},{"type":"function","name":"enterWithETH","inputs":[],"outputs":[],"stateMutability":"payable"},{"type":"function","name":"entriesCount","inputs":[{"name":"","type":"address","internalType":"address"}],"outputs":[{"name":"","type":"uint32","internalType":"uint32"}],"stateMutability":"view"},{"type":"function","name":"ethUsdPriceFeed","inputs":[],"outputs":[{"name":"","type":"address","internalType":"contract AggregatorV3Interface"}],"stateMutability":"view"},{"type":"function","name":"fundCCIPResponses","inputs":[],"outputs":[],"stateMutability":"payable"},{"type":"function","name":"fundingAddresses","inputs":[{"name":"","type":"uint256","internalType":"uint256"}],"outputs":[{"name":"","type":"address","internalType":"address payable"}],"stateMutability":"view"},{"type":"function","name":"getAdmin","inputs":[],"outputs":[{"name":"","type":"address","internalType":"address"}],"stateMutability":"view"},{"type":"function","name":"getBalance","inputs":[],"outputs":[{"name":"","type":"uint256","internalType":"uint256"}],"stateMutability":"view"},{"type":"function","name":"getCCIPResponseCosts","inputs":[],"outputs":[{"name":"entryResponseCost","type":"uint256","internalType":"uint256"},{"name":"winnersNotificationCost","type":"uint256","internalType":"uint256"},{"name":"totalEstimatedCost","type":"uint256","internalType":"uint256"}],"stateMutability":"view"},{"type":"function","name":"getETHAmountForEntry","inputs":[],"outputs":[{"name":"","type":"uint256","internalType":"uint256"}],"stateMutability":"view"},{"type":"function","name":"getLinkToken","inputs":[],"outputs":[{"name":"","type":"address","internalType":"contract LinkTokenInterface"}],"stateMutability":"view"},{"type":"function","name":"getOptimalETHAmount","inputs":[],"outputs":[{"name":"optimalAmount","type":"uint256","internalType":"uint256"},{"name":"available","type":"bool","internalType":"bool"},{"name":"message","type":"string","internalType":"string"}],"stateMutability":"view"},{"type":"function","name":"getPoolKeyInfo","inputs":[],"outputs":[{"name":"","type":"tuple","internalType":"struct PoolKey","components":[{"name":"currency0","type":"address","internalType":"Currency"},{"name":"currency1","type":"address","internalType":"Currency"},{"name":"fee","type":"uint24","internalType":"uint24"},{"name":"tickSpacing","type":"int24","internalType":"int24"},{"name":"hooks","type":"address","internalType":"contract IHooks"}]}],"stateMutability":"view"},{"type":"function","name":"getPoolPriceInfo","inputs":[],"outputs":[{"name":"sqrtPriceX96","type":"uint160","internalType":"uint160"},{"name":"bonePerEth","type":"uint256","internalType":"uint256"},{"name":"ethNeededForEntry","type":"uint256","internalType":"uint256"},{"name":"poolExists","type":"bool","internalType":"bool"}],"stateMutability":"view"},{"type":"function","name":"getRoundInfo","inputs":[{"name":"roundId","type":"uint256","internalType":"uint256"}],"outputs":[{"name":"playerCount","type":"uint256","internalType":"uint256"},{"name":"state","type":"uint8","internalType":"enum VRFLottery.RoundState"},{"name":"winners","type":"address[3]","internalType":"address[3]"},{"name":"totalPrizePool","type":"uint256","internalType":"uint256"},{"name":"startTime","type":"uint256","internalType":"uint256"}],"stateMutability":"view"},{"type":"function","name":"getRouter","inputs":[],"outputs":[{"name":"","type":"address","internalType":"address"}],"stateMutability":"view"},{"type":"function","name":"getVRFFundingStatus","inputs":[],"outputs":[{"name":"currentLinkBalance","type":"uint256","internalType":"uint256"},{"name":"estimatedCostPerRequest","type":"uint256","internalType":"uint256"},{"name":"requestsAffordable","type":"uint256","internalType":"uint256"},{"name":"sufficientFunds","type":"bool","internalType":"bool"}],"stateMutability":"view"},{"type":"function","name":"i_vrfV2PlusWrapper","inputs":[],"outputs":[{"name":"","type":"address","internalType":"contract IVRFV2PlusWrapper"}],"stateMutability":"view"},{"type":"function","name":"isRoundReadyForCompletion","inputs":[{"name":"roundId","type":"uint256","internalType":"uint256"}],"outputs":[{"name":"","type":"bool","internalType":"bool"}],"stateMutability":"view"},{"type":"function","name":"isRoundReadyForPrizeDistribution","inputs":[{"name":"roundId","type":"uint256","internalType":"uint256"}],"outputs":[{"name":"","type":"bool","internalType":"bool"}],"stateMutability":"view"},{"type":"function","name":"isRoundReadyForVRF","inputs":[{"name":"roundId","type":"uint256","internalType":"uint256"}],"outputs":[{"name":"","type":"bool","internalType":"bool"}],"stateMutability":"view"},{"type":"function","name":"lotteryRounds","inputs":[{"name":"","type":"uint256","internalType":"uint256"}],"outputs":[{"name":"totalPrizePoolBone","type":"uint128","internalType":"uint128"},{"name":"startTime","type":"uint64","internalType":"uint64"},{"name":"state","type":"uint8","internalType":"enum VRFLottery.RoundState"}],"stateMutability":"view"},{"type":"function","name":"nftContract","inputs":[],"outputs":[{"name":"","type":"address","internalType":"contract IERC721"}],"stateMutability":"view"},{"type":"function","name":"numWords","inputs":[],"outputs":[{"name":"","type":"uint32","internalType":"uint32"}],"stateMutability":"view"},{"type":"function","name":"pauseContract","inputs":[],"outputs":[],"stateMutability":"nonpayable"},{"type":"function","name":"paused","inputs":[],"outputs":[{"name":"","type":"bool","internalType":"bool"}],"stateMutability":"view"},{"type":"function","name":"pendingWithdrawalsBone","inputs":[{"name":"","type":"address","internalType":"address"}],"outputs":[{"name":"","type":"uint128","internalType":"uint128"}],"stateMutability":"view"},{"type":"function","name":"permit2","inputs":[],"outputs":[{"name":"","type":"address","internalType":"contract IPermit2"}],"stateMutability":"view"},{"type":"function","name":"playerPoints","inputs":[{"name":"","type":"address","internalType":"address"}],"outputs":[{"name":"","type":"uint32","internalType":"uint32"}],"stateMutability":"view"},{"type":"function","name":"poolManager","inputs":[],"outputs":[{"name":"","type":"address","internalType":"contract IPoolManager"}],"stateMutability":"view"},{"type":"function","name":"rawFulfillRandomWords","inputs":[{"name":"_requestId","type":"uint256","internalType":"uint256"},{"name":"_randomWords","type":"uint256[]","internalType":"uint256[]"}],"outputs":[],"stateMutability":"nonpayable"},{"type":"function","name":"requestConfirmations","inputs":[],"outputs":[{"name":"","type":"uint16","internalType":"uint16"}],"stateMutability":"view"},{"type":"function","name":"requestRandomWords","inputs":[],"outputs":[],"stateMutability":"nonpayable"},{"type":"function","name":"setChainContract","inputs":[{"name":"chainSelector","type":"uint64","internalType":"uint64"},{"name":"contractAddress","type":"address","internalType":"address"}],"outputs":[],"stateMutability":"nonpayable"},{"type":"function","name":"setVRFConfig","inputs":[{"name":"_callbackGasLimit","type":"uint32","internalType":"uint32"},{"name":"_requestConfirmations","type":"uint16","internalType":"uint16"},{"name":"_numWords","type":"uint32","internalType":"uint32"}],"outputs":[],"stateMutability":"nonpayable"},{"type":"function","name":"supportsInterface","inputs":[{"name":"interfaceId","type":"bytes4","internalType":"bytes4"}],"outputs":[{"name":"","type":"bool","internalType":"bool"}],"stateMutability":"view"},{"type":"function","name":"totalWinningsBone","inputs":[{"name":"","type":"address","internalType":"address"}],"outputs":[{"name":"","type":"uint128","internalType":"uint128"}],"stateMutability":"view"},{"type":"function","name":"universalRouter","inputs":[],"outputs":[{"name":"","type":"address","internalType":"contract IUniversalRouter"}],"stateMutability":"view"},{"type":"function","name":"unpauseContract","inputs":[],"outputs":[],"stateMutability":"nonpayable"},{"type":"function","name":"vrfRequests","inputs":[{"name":"","type":"uint256","internalType":"uint256"}],"outputs":[{"name":"roundId","type":"uint128","internalType":"uint128"},{"name":"fulfilled","type":"bool","internalType":"bool"},{"name":"exists","type":"bool","internalType":"bool"}],"stateMutability":"view"},{"type":"function","name":"withdraw","inputs":[],"outputs":[],"stateMutability":"nonpayable"},{"type":"event","name":"AdminChanged","inputs":[{"name":"previousAdmin","type":"address","indexed":true,"internalType":"address"},{"name":"newAdmin","type":"address","indexed":true,"internalType":"address"}],"anonymous":false},{"type":"event","name":"CCIPFunded","inputs":[{"name":"funder","type":"address","indexed":true,"internalType":"address"},{"name":"amount","type":"uint256","indexed":false,"internalType":"uint256"}],"anonymous":false},{"type":"event","name":"CCIPResponseFailed","inputs":[{"name":"player","type":"address","indexed":true,"internalType":"address"},{"name":"chain","type":"uint64","indexed":true,"internalType":"uint64"},{"name":"reason","type":"string","indexed":false,"internalType":"string"}],"anonymous":false},{"type":"event","name":"CrossChainEntryReceived","inputs":[{"name":"player","type":"address","indexed":true,"internalType":"address"},{"name":"sourceChain","type":"uint64","indexed":false,"internalType":"uint64"}],"anonymous":false},{"type":"event","name":"ETHSwappedToBone","inputs":[{"name":"player","type":"address","indexed":true,"internalType":"address"},{"name":"ethSent","type":"uint256","indexed":false,"internalType":"uint256"},{"name":"ethUsed","type":"uint256","indexed":false,"internalType":"uint256"},{"name":"ethRefunded","type":"uint256","indexed":false,"internalType":"uint256"},{"name":"boneReceived","type":"uint256","indexed":false,"internalType":"uint256"}],"anonymous":false},{"type":"event","name":"ETHWithdrawn","inputs":[{"name":"recipient","type":"address","indexed":true,"internalType":"address"},{"name":"amount","type":"uint256","indexed":false,"internalType":"uint256"}],"anonymous":false},{"type":"event","name":"GameCycleCompleted","inputs":[{"name":"roundId","type":"uint256","indexed":true,"internalType":"uint256"}],"anonymous":false},{"type":"event","name":"LinkFunded","inputs":[{"name":"amount","type":"uint256","indexed":false,"internalType":"uint256"}],"anonymous":false},{"type":"event","name":"LotteryEnter","inputs":[{"name":"player","type":"address","indexed":true,"internalType":"address"},{"name":"sourceChain","type":"uint64","indexed":true,"internalType":"uint64"},{"name":"paidWithETH","type":"bool","indexed":false,"internalType":"bool"}],"anonymous":false},{"type":"event","name":"NewRoundStarted","inputs":[{"name":"roundId","type":"uint256","indexed":true,"internalType":"uint256"}],"anonymous":false},{"type":"event","name":"Paused","inputs":[{"name":"account","type":"address","indexed":false,"internalType":"address"}],"anonymous":false},{"type":"event","name":"PoolKeyUpdated","inputs":[{"name":"newPoolKey","type":"tuple","indexed":false,"internalType":"struct PoolKey","components":[{"name":"currency0","type":"address","internalType":"Currency"},{"name":"currency1","type":"address","internalType":"Currency"},{"name":"fee","type":"uint24","internalType":"uint24"},{"name":"tickSpacing","type":"int24","internalType":"int24"},{"name":"hooks","type":"address","internalType":"contract IHooks"}]}],"anonymous":false},{"type":"event","name":"PricesUpdated","inputs":[{"name":"ethPriceUSD","type":"uint256","indexed":false,"internalType":"uint256"},{"name":"poolBonePerETH","type":"uint256","indexed":false,"internalType":"uint256"},{"name":"ethRequired","type":"uint256","indexed":false,"internalType":"uint256"}],"anonymous":false},{"type":"event","name":"PrizesDistributed","inputs":[{"name":"roundId","type":"uint256","indexed":false,"internalType":"uint256"},{"name":"totalPrizes","type":"uint256","indexed":false,"internalType":"uint256"}],"anonymous":false},{"type":"event","name":"RoundCompleted","inputs":[{"name":"roundId","type":"uint256","indexed":true,"internalType":"uint256"},{"name":"newRoundId","type":"uint256","indexed":false,"internalType":"uint256"}],"anonymous":false},{"type":"event","name":"RoundFull","inputs":[{"name":"roundId","type":"uint256","indexed":true,"internalType":"uint256"}],"anonymous":false},{"type":"event","name":"SlippageAdjusted","inputs":[{"name":"oldSlippage","type":"uint256","indexed":false,"internalType":"uint256"},{"name":"newSlippage","type":"uint256","indexed":false,"internalType":"uint256"},{"name":"reason","type":"string","indexed":false,"internalType":"string"}],"anonymous":false},{"type":"event","name":"TokensBurned","inputs":[{"name":"boneAmount","type":"uint256","indexed":false,"internalType":"uint256"}],"anonymous":false},{"type":"event","name":"Unpaused","inputs":[{"name":"account","type":"address","indexed":false,"internalType":"address"}],"anonymous":false},{"type":"event","name":"VRFFulfilled","inputs":[{"name":"requestId","type":"uint256","indexed":true,"internalType":"uint256"},{"name":"roundId","type":"uint256","indexed":false,"internalType":"uint256"}],"anonymous":false},{"type":"event","name":"VRFRequested","inputs":[{"name":"requestId","type":"uint256","indexed":true,"internalType":"uint256"},{"name":"roundId","type":"uint256","indexed":false,"internalType":"uint256"}],"anonymous":false},{"type":"event","name":"WinnersNotificationSent","inputs":[{"name":"chain","type":"uint64","indexed":true,"internalType":"uint64"},{"name":"roundId","type":"uint256","indexed":true,"internalType":"uint256"}],"anonymous":false},{"type":"event","name":"WinnersSelected","inputs":[{"name":"winners","type":"address[3]","indexed":false,"internalType":"address[3]"},{"name":"roundId","type":"uint256","indexed":false,"internalType":"uint256"}],"anonymous":false},{"type":"event","name":"WithdrawalMade","inputs":[{"name":"recipient","type":"address","indexed":true,"internalType":"address"},{"name":"amount","type":"uint256","indexed":false,"internalType":"uint256"}],"anonymous":false},{"type":"error","name":"ChainNotAllowed","inputs":[]},{"type":"error","name":"DuplicateEntry","inputs":[]},{"type":"error","name":"ETHPriceStale","inputs":[]},{"type":"error","name":"EnforcedPause","inputs":[]},{"type":"error","name":"ExpectedPause","inputs":[]},{"type":"error","name":"InsufficientBoneBalance","inputs":[]},{"type":"error","name":"InsufficientETHAmount","inputs":[]},{"type":"error","name":"InsufficientLinkFunds","inputs":[]},{"type":"error","name":"InvalidRoundState","inputs":[]},{"type":"error","name":"InvalidRouter","inputs":[{"name":"router","type":"address","internalType":"address"}]},{"type":"error","name":"InvalidZeroAddress","inputs":[]},{"type":"error","name":"MaxPlayersReached","inputs":[]},{"type":"error","name":"NoNFTOwnership","inputs":[]},{"type":"error","name":"NoWithdrawalAvailable","inputs":[]},{"type":"error","name":"OnlyVRFWrapperCanFulfill","inputs":[{"name":"have","type":"address","internalType":"address"},{"name":"want","type":"address","internalType":"address"}]},{"type":"error","name":"PoolPriceInvalid","inputs":[]},{"type":"error","name":"PrizesAlreadyDistributed","inputs":[]},{"type":"error","name":"PrizesNotDistributed","inputs":[]},{"type":"error","name":"ReentrancyGuardReentrantCall","inputs":[]},{"type":"error","name":"RoundAlreadyCompleted","inputs":[]},{"type":"error","name":"RoundNotActive","inputs":[]},{"type":"error","name":"RoundNotCompleted","inputs":[]},{"type":"error","name":"RoundNotFull","inputs":[]},{"type":"error","name":"SlippageExceeded","inputs":[]},{"type":"error","name":"SwapFailed","inputs":[]},{"type":"error","name":"VRFAlreadyRequested","inputs":[]},{"type":"error","name":"WinnersNotSelected","inputs":[]},{"type":"error","name":"WithdrawalFailed","inputs":[]}],"bytecode":{"object":"0x6101e08060405234610565576165be803803809161001d82856105c3565b833981019080820390610200821261056557610038816105e6565b6020820151939092906001600160401b03851685036105655761005d604084016105e6565b9161006a606085016105e6565b91610077608086016105e6565b918160bf87011215610565576040519061009082610594565b8161014088019384116105655760a08801905b84821061057c57505060a09061013f190112610565576100ce604051926100c984610594565b6105e6565b82526100dd61016087016105e6565b92602083019384526101808701519462ffffff8616860361056557604084019586526101a0880151968760020b880361056557606085019788526101c0890151986001600160a01b038a168a03610565576101e061014291608088019b8c52016105e6565b99604051630711a57d60e21b81526020816004817329576ab8152a09b9dc634804e4ade73da1f3a3cc5afa908115610571575f91610533575b506001600160a01b039081166080527329576ab8152a09b9dc634804e4ade73da1f3a3cc60a0528116156105205760c05260015f556109c460025560078054600160801b600160d01b03191665180018003d0960851b1790556001600160a01b0316988915801561050f575b80156104fe575b6104ef576001600160a01b03169889156104ef57600380546001600160a01b0319166001600160a01b0385169081179091556040519b905f7f7e644d79422f17c01e4894b5f4f588d331ebfa28653d42ae832dc59e38c9798f8180a361016052610100526001600160a01b031661012052610140525f5b600581106104d157505073e03a1074c86cfedd5c142c4f04f1a1536e203543610180526e22d473030f116ddee9f6b43ac78ba36101a052733a9d48ab9751398bbfa63ad67599bb04e4bdf98b6101c05251600480546001600160a01b039283166001600160a01b0319918216179091559151600580549451955160b81b62ffffff60b81b1662ffffff60a01b60a09790971b969096169183166001600160d01b031990951694909417179390931790915591516006805491909216921691909117905560e052600780546001600160801b03191660019081179091555f81815260106020527f8c6065603763fec3f5742441d3833f3f43b982453612d76adb39a885e3006b638054600160801b600160c01b034260801b16600160801b600160c81b03199091161790557fae4cf40c31a833f14b2aee71da8cb55d5fd1944a9ed5b7696022328921f6e3179080a2615fc390816105fb823960805181818161070a015281816108260152612990015260a0518181816107850152818161120901528181612a1e0152613c56015260c0518181816111c5015281816119bc01528181612d9f01528181613f380152818161529d0152615830015260e0518181816138de0152614fe3015261010051818181610e3a01528181611c30015281816132b90152615175015261012051818181610f520152818161172e01528181611d43015281816130cc015281816132f90152613a01015261014051818181613ac50152614cb6015261016051818181611fda015281816134170152613922015261018051818181610df101526110d101526101a051816140d601526101c0518181816117d80152613b080152f35b81516001600160a01b03166008820155602090910190600101610265565b63f6b2911f60e01b5f5260045ffd5b506001600160a01b038316156101ee565b506001600160a01b038216156101e7565b6335fdcccd60e21b5f525f60045260245ffd5b90506020813d602011610569575b8161054e602093836105c3565b810103126105655761055f906105e6565b5f61017b565b5f80fd5b3d9150610541565b6040513d5f823e3d90fd5b60208091610589846105e6565b8152019101906100a3565b60a081019081106001600160401b038211176105af57604052565b634e487b7160e01b5f52604160045260245ffd5b601f909101601f19168101906001600160401b038211908210176105af57604052565b51906001600160a01b03821682036105655756fe608080604052600436101561001c575b50361561001a575f80fd5b005b5f905f3560e01c90816301ffc9a71461424557508063029dd6ba14610e155780630aefcd0b146142275780630c154afe1461420c5780630f2f8f7f1461416f57806310b789391461415557806312065fe01461413a578063121c8ad1146140fa57806312261ee7146140b7578063139598a914613d6157806313a7d6e614613d215780631a1d925214613cca5780631fe543e314613bdc57806324f7469714613bb6578063285f664814613b2c57806335a9e4df14613ae95780633ad10ef614613aa65780633ccfd60b146139465780633d54cb6f1461390257806342f6fb29146138bf578063439766ce1461383b5780634411b3eb146138205780634d7614b1146132265780634e6fd6c41461320a57806352031975146131c05780635c975abb1461319e57806362308e8514613170578063625b818614612be65780636afdd85014612bbd5780636ca3fc3b14612b525780636e9960c31461290357806371b859d614612af05780637615aeb9146129445780637649002a1461292957806377955245146129035780637b450dba146128275780637ccfd7fc1461280157806384182daf14611ba2578063854c2a1014611b86578063854c94bf14611b4857806385572ffb14611981578063889da76e146114ad57806388c3ffb0146114015780638984d769146113c557806393b998fb14610e155780639728fb8d146112df5780639b211fc4146112a15780639bf3f8021461125d5780639cbe5efd1461122d5780639ed0868d146111e9578063b0f479a1146111a5578063b0fb162f14611180578063b2110fb814611136578063b2db17d3146110a5578063b33712c514610ff8578063b51235dd14610fdc578063b7285ccb14610f76578063b7753a5614610f32578063bb7e0bef14610ef0578063c1609e9214610ecd578063cd3ec53314610e5e578063d56d229d14610e1a578063d968f51b14610e15578063dc4c90d314610dd1578063e0c862891461072e578063e76d5168146106ea578063e8dd7fc3146106bb578063eafa02b41461067d578063ed0b48141461063f578063ed76698414610379578063f677165b1461035b5763f97595180361000f573461035857806003193601126103585760206040516117708152f35b80fd5b50346103585780600319360112610358576020600254604051908152f35b503461035857604060031936011261035857610393614461565b6024356001600160a01b03811680910361063b576103bd6001600160a01b0360035416331461469f565b67ffffffffffffffff821690818452600f60205260408420817fffffffffffffffffffffffff00000000000000000000000000000000000000008254161790551515818452600e602052604084207fffffffffffffffffffffffffffffffffffffffffffffffffffffffffffffff0081541660ff83161790555f1461050157828391600d54925b8381106104cd575b50501561045857505080f35b680100000000000000008110156104a0579061047d82600161049d9401600d55614421565b90919067ffffffffffffffff8084549260031b9316831b921b1916179055565b80f35b6024837f4e487b710000000000000000000000000000000000000000000000000000000081526041600452fd5b8167ffffffffffffffff6104e083614421565b90549060031b1c16146104f557600101610444565b50505060015f8061044c565b9050815b600d5480821015610635578267ffffffffffffffff61052384614421565b90549060031b1c16146105395750600101610505565b9091507fffffffffffffffffffffffffffffffffffffffffffffffffffffffffffffffff8101908111610608579061047d67ffffffffffffffff61057f61058d94614421565b90549060031b1c1691614421565b600d5480156105db577fffffffffffffffffffffffffffffffffffffffffffffffffffffffffffffffff016105c181614421565b67ffffffffffffffff82549160031b1b19169055600d5580f35b6024827f4e487b710000000000000000000000000000000000000000000000000000000081526031600452fd5b6024837f4e487b710000000000000000000000000000000000000000000000000000000081526011600452fd5b50505080f35b8280fd5b50346103585760206003193601126103585760ff604060209267ffffffffffffffff610669614461565b168152600e84522054166040519015158152f35b50346103585760206003193601126103585763ffffffff60406020926001600160a01b036106a96143a9565b16815260148452205416604051908152f35b50346103585780600319360112610358576020604051733a9d48ab9751398bbfa63ad67599bb04e4bdf98b8152f35b503461035857806003193601126103585760206040516001600160a01b037f0000000000000000000000000000000000000000000000000000000000000000168152f35b50346103585780600319360112610358576007546fffffffffffffffffffffffffffffffff8116825260106020526004604083200160ff815460c01c166006811015610da457600103610d7c576001600160a01b037f00000000000000000000000000000000000000000000000000000000000000001663ffffffff8360801c169263ffffffff8160b01c16604051907f27e5c50a00000000000000000000000000000000000000000000000000000000825260208280610808848a6004840190929163ffffffff60209181604085019616845216910152565b0381875afa918215610d71578792610d3d575b506001600160a01b037f000000000000000000000000000000000000000000000000000000000000000016916040517f70a08231000000000000000000000000000000000000000000000000000000008152306004820152602081602481875afa908115610cd8578991610d0b575b5010610ce35760405161089c816142fe565b878152604051907f92fd13380000000000000000000000000000000000000000000000000000000060208301525115156024820152602481526108e060448261436e565b6040517f27e5c50a00000000000000000000000000000000000000000000000000000000815263ffffffff88811660048301528316602482015291602083604481895afa928315610cd8578993610c9a575b506109c69761096f60209695949361097d9361ffff6040519889958b87015260a01c166040850152606084015260808084015260a08301906143bf565b03601f19810185528461436e565b876040518098819582947f4000aea000000000000000000000000000000000000000000000000000000000845289600485015260248401526060604484015260648301906143bf565b03925af1908115610c8f57600493602092610c64575b50604051938480927ffc2a88c30000000000000000000000000000000000000000000000000000000082525afa918215610c59578392610c21575b50602090604051610a28838261436e565b8481525f36813760016fffffffffffffffffffffffffffffffff6007541660405190610a5382614352565b8152848101878152604080830184815260608401958652888a526011885290892092518354925191517fffffffffffffffffffffffffffff0000000000000000000000000000000000009093166fffffffffffffffffffffffffffffffff919091161790151560801b70ff00000000000000000000000000000000161790151560881b71ff00000000000000000000000000000000001617815591518051929091019067ffffffffffffffff8311610bf457680100000000000000008311610bf45784908254848455808510610bcc575b5001908652838620865b838110610bba5787877fc6f253de430148d7581a940518a73a6d98efc85ea9162887a3918443ba67c212888878020000000000000000000000000000000000000000000000007fffffffffffffff00ffffffffffffffffffffffffffffffffffffffffffffffff8254161790556fffffffffffffffffffffffffffffffff60075416604051908152a280f35b82518282015591850191600101610b2e565b83895284838a2091820191015b818110610be65750610b24565b898155879350600101610bd9565b6024877f4e487b710000000000000000000000000000000000000000000000000000000081526041600452fd5b9091506020813d602011610c51575b81610c3d6020938361436e565b81010312610c4d5751905f610a17565b5f80fd5b3d9150610c30565b6040513d85823e3d90fd5b610c8390833d8511610c88575b610c7b818361436e565b810190614687565b6109dc565b503d610c71565b6040513d86823e3d90fd5b94939250906020853d602011610cd0575b81610cb86020938361436e565b81010312610c4d5793519293919291906109c6610932565b3d9150610cab565b6040513d8b823e3d90fd5b6004877f5193d552000000000000000000000000000000000000000000000000000000008152fd5b90506020813d602011610d35575b81610d266020938361436e565b81010312610c4d57515f61088a565b3d9150610d19565b9091506020813d602011610d69575b81610d596020938361436e565b81010312610c4d5751905f61081b565b3d9150610d4c565b6040513d89823e3d90fd5b6004837f2fe3fe9f000000000000000000000000000000000000000000000000000000008152fd5b6024847f4e487b710000000000000000000000000000000000000000000000000000000081526021600452fd5b503461035857806003193601126103585760206040516001600160a01b037f0000000000000000000000000000000000000000000000000000000000000000168152f35b6142e3565b503461035857806003193601126103585760206040516001600160a01b037f0000000000000000000000000000000000000000000000000000000000000000168152f35b5034610358576020600319360112610358576004358152601060205260ff600460408320015460c01c16906006821015610ea057602082600360405191148152f35b807f4e487b7100000000000000000000000000000000000000000000000000000000602492526021600452fd5b50346103585780600319360112610358576020604051670de0b6b3a76400008152f35b5034610358576020600319360112610358576001600160a01b03604060209267ffffffffffffffff610f20614461565b168152600f8452205416604051908152f35b503461035857806003193601126103585760206040516001600160a01b037f0000000000000000000000000000000000000000000000000000000000000000168152f35b50346103585760206003193601126103585760046040606092823581526010602052200154610fda604051916fffffffffffffffffffffffffffffffff8116835267ffffffffffffffff8160801c16602084015260ff604084019160c01c166143e4565bf35b50346103585780600319360112610358576020604051600a8152f35b503461035857806003193601126103585761101f6001600160a01b0360035416331461469f565b60015460ff81161561107d577fffffffffffffffffffffffffffffffffffffffffffffffffffffffffffffff00166001557f5db9ee0a495bf2e6ff9c91a7834c1ba4fdd244a5e8aa4e537bd38aeae4b073aa6020604051338152a180f35b6004827f8dfc202b000000000000000000000000000000000000000000000000000000008152fd5b50346103585780600319360112610358576080906001600160a01b036110f560a06110ce61462d565b207f0000000000000000000000000000000000000000000000000000000000000000615ce4565b505050166111016150a2565b509161110b61494f565b9091901561112f57505b604051928284526020840152604083015215156060820152f35b9050611115565b5034610358576020600319360112610358576fffffffffffffffffffffffffffffffff60406020926001600160a01b0361116e6143a9565b16815260138452205416604051908152f35b5034610358578060031936011261035857602061ffff60075460a01c16604051908152f35b503461035857806003193601126103585760206040516001600160a01b037f0000000000000000000000000000000000000000000000000000000000000000168152f35b503461035857806003193601126103585760206040516001600160a01b037f0000000000000000000000000000000000000000000000000000000000000000168152f35b503461035857806003193601126103585760206fffffffffffffffffffffffffffffffff60075416604051908152f35b50346103585760206003193601126103585760043590600d5482101561035857602067ffffffffffffffff61129184614421565b90549060031b1c16604051908152f35b50346103585760206003193601126103585763ffffffff60406020926001600160a01b036112cd6143a9565b16815260158452205416604051908152f35b503461035857806003193601126103585760606112fa61494f565b15905061136257506001905060405161131460408261436e565b601381527f45544820656e74727920617661696c61626c65000000000000000000000000006020820152905b61135e604051928392151583526040602084015260408301906143bf565b0390f35b61136f604051918261436e565b602c81527f45544820656e7472792074656d706f726172696c7920756e617661696c61626c60208201527f65202d2075736520424f4e450000000000000000000000000000000000000000604082015290611340565b50346103585760206003193601126103585760043560058110156113fd576001600160a01b0390602092506008015416604051908152f35b5080fd5b50346103585760206003193601126103585760408160e0925060608251611428828261436e565b369037600435815260106020522067ffffffffffffffff81549161148a600161145c6004840154936040519283910161491f565b61146760608261436e565b6040519485526114806020860160ff8560c01c166143e4565b60408501906143f1565b6fffffffffffffffffffffffffffffffff811660a084015260801c1660c0820152f35b34610c4d576040600319360112610c4d57600435602435303303611923576114d5814761474f565b604051917f100000000000000000000000000000000000000000000000000000000000000060208401526001835261150e60218461436e565b604080519061151d818361436e565b60018252601f19015f5b8181106119125750506040517f080000000000000000000000000000000000000000000000000000000000000060208201527f0c0000000000000000000000000000000000000000000000000000000000000060218201527f0f000000000000000000000000000000000000000000000000000000000000006022820152600381526115b460238261436e565b60405160806115c3818361436e565b60038252601f19015f5b8181106118d457505061179b916116d56117ad926001600160a01b0360045416159960209a6116e38c6116d5604051611606838261436e565b5f81526fffffffffffffffffffffffffffffffff8d81604051976116298961431a565b61163161462d565b89528689019081526040890190828b1682528260608b019416845260808a019586526116a86040519a898c9a8b015260408a0190516001600160a01b036080809282815116855282602082015116602086015262ffffff6040820151166040860152606081015160020b6060860152015116910152565b51151560e088015251166101008601525116610120840152516101206101408401526101608301906143bf565b03601f19810183528261436e565b6116ec83615c4b565b526116f682615c4b565b506040515f8c8201528860408201526040815261171460608261436e565b61171d83615c58565b5261172782615c58565b50604080517f00000000000000000000000000000000000000000000000000000000000000006001600160a01b0316818e01908152602081019390935291611771918391016116d5565b61177a82615c68565b5261178481615c68565b5060405194859360408c86015260608501906143bf565b90601f19848303016040850152615c8c565b6117b682615c4b565b526117c081615c4b565b5061012c4201908142116118a7576001600160a01b037f000000000000000000000000000000000000000000000000000000000000000016803b15610c4d5761184784611859975f95604051998a96879586947f3593564c0000000000000000000000000000000000000000000000000000000086526060600487015260648601906143bf565b90600319858303016024860152615c8c565b90604483015203925af190811561189c576118849361187f9261188c575b504792614620565b61474f565b604051908152f35b5f6118969161436e565b5f611877565b6040513d5f823e3d90fd5b7f4e487b71000000000000000000000000000000000000000000000000000000005f52601160045260245ffd5b8060606020809386010152016115cd565b7f4e487b71000000000000000000000000000000000000000000000000000000005f52604160045260245ffd5b806060602080938601015201611527565b60646040517f08c379a000000000000000000000000000000000000000000000000000000000815260206004820152601160248201527f496e7465726e616c2066756e6374696f6e0000000000000000000000000000006044820152fd5b34610c4d576020600319360112610c4d5760043567ffffffffffffffff8111610c4d5760a06003198236030112610c4d576001600160a01b037f0000000000000000000000000000000000000000000000000000000000000000163303611b1c57604051906119ef8261431a565b80600401358252602481013567ffffffffffffffff81168103610c4d576020830152604481013567ffffffffffffffff8111610c4d57611a3590600436918401016148d9565b6040830152606481013567ffffffffffffffff8111610c4d57611a5e90600436918401016148d9565b606083015260848101359067ffffffffffffffff8211610c4d57019036602383011215610c4d57600482013591611a9483614391565b90611aa2604051928361436e565b838252602060048184019560061b8301010190368211610c4d57602401935b818510611ad75761001a848460808201526150e8565b604085360312610c4d5760405190611aee82614336565b8535906001600160a01b0382168203610c4d5782602092604094528288013583820152815201940193611ac1565b7fd7f73334000000000000000000000000000000000000000000000000000000005f523360045260245ffd5b34610c4d575f600319360112610c4d5761135e611b6361475c565b6040939193519384938452151560208401526060604084015260608301906143bf565b34610c4d575f600319360112610c4d5760206040516103e88152f35b5f600319360112610c4d57611bb5614b66565b611bbd614b9d565b6fffffffffffffffffffffffffffffffff600754165f52601060205260ff600460405f20015460c01c1660068110156127d4576127ac576040517f70a082310000000000000000000000000000000000000000000000000000000081523360048201526020816024816001600160a01b037f0000000000000000000000000000000000000000000000000000000000000000165afa90811561189c575f9161277a575b501561275257611c6e614fa9565b9050611c786150a2565b8215908115612749575b506127215780156126f4576002546127100180612710116118a757611cb46127109183670de0b6b3a76400000461460d565b04612ee0810290808204612ee014901517156118a757612710900491671bc16d674ec8000083116126e4575b662386f26fc1000083106126d5575b82341061262b577fa6b830b74e52d7d1140e76252f225dc7bed28782519845600bbd3182341dc1159160609115612624576001905b60ff604051921682526020820152836040820152a16001600160a01b037f000000000000000000000000000000000000000000000000000000000000000016604051917f70a08231000000000000000000000000000000000000000000000000000000008352306004840152602083602481855afa92831561189c575f936125f0575b50604051907f889da76e000000000000000000000000000000000000000000000000000000008252670de0b6b3a7640000600483015260248201526020816044815f305af15f91816125bc575b50611e95575f80808034335af1611e09614720565b5015611e37577f81ceff30000000000000000000000000000000000000000000000000000000005f5260045ffd5b60646040517f08c379a000000000000000000000000000000000000000000000000000000000815260206004820152601760248201527f456d657267656e637920726566756e64206661696c65640000000000000000006044820152fd5b9160246020600193604051928380927f70a082310000000000000000000000000000000000000000000000000000000082523060048301525afa90811561189c575f9161258a575b50670de0b6b3a764000082018092116118a7571061252c57600254901561249c5760025461044c8111612468575b5060a07f5c666af6ed3729c0a2a74ffa920fa12f0534058f0070b6091b78af188bb75d0391600254604051918252602082015260606040820152601160608201527f53756363657373202d20726564756365640000000000000000000000000000006080820152a15b611f7e813461474f565b90816123f5575b6fffffffffffffffffffffffffffffffff600754165f52601060205260405f209182549260048410156123cd575f5b8481106123825750604051611fc881614352565b3381526020810167ffffffffffffffff7f00000000000000000000000000000000000000000000000000000000000000001695868252604083019160018352606084019160018352680100000000000000008110156118e5578060016120319201875586614bd1565b949094612356576001600160a01b0380915116167fffffffffffffffffffffffff000000000000000000000000000000000000000085541617845551917fffff00000000000000000000ffffffffffffffffffffffffffffffffffffffff7dff00000000000000000000000000000000000000000000000000000000007cff000000000000000000000000000000000000000000000000000000007bffffffffffffffff000000000000000000000000000000000000000087549660a01b1693847fffffffff0000000000000000ffffffffffffffffffffffffffffffffffffffff881617885551151560e01b169384847fffffff000000000000000000ffffffffffffffffffffffffffffffffffffffff88161717875551151560e81b16931617171790556004808201916fffffffffffffffffffffffffffffffff80670de0b6b3a7640000818654160116166fffffffffffffffffffffffffffffffff19845416178355855f526005810160205260405f2063ffffffff8060018184541601161663ffffffff19825416179055855f526006810160205260405f206fffffffffffffffffffffffffffffffff80670de0b6b3a7640000818454160116166fffffffffffffffffffffffffffffffff19825416179055335f52601460205260405f2063ffffffff8060018184541601161663ffffffff19825416179055335f52601560205260405f2063ffffffff8060058184541601161663ffffffff1982541617905554146122d6575b506040519134835260208301526040820152670de0b6b3a764000060608201527f7af4878abf6b21b42906a1c69c3cc7c1da4e687d8cd948e1b8755a5251297cfd60803392a2604051600181527fa67d03666a3149f7a9b8af8d3c3e51310454dee74e967409260559f680195f1060203392a360015f55005b78010000000000000000000000000000000000000000000000007fffffffffffffff00ffffffffffffffffffffffffffffffffffffffffffffffff8254161790556fffffffffffffffffffffffffffffffff600754167f99962c98c30a5f8b818884fdda971824a2598708ec3837d19a6cbfb5aa2b672e5f80a28361225d565b7f4e487b71000000000000000000000000000000000000000000000000000000005f525f60045260245ffd5b61238c8183614bd1565b50546001600160a01b031633146123a557600101611fb4565b7f357d0cc4000000000000000000000000000000000000000000000000000000005f5260045ffd5b7f94d0eef9000000000000000000000000000000000000000000000000000000005f5260045ffd5b5f80808085335af1612405614720565b50611f855760646040517f08c379a000000000000000000000000000000000000000000000000000000000815260206004820152601160248201527f45544820726566756e64206661696c65640000000000000000000000000000006044820152fd5b7fffffffffffffffffffffffffffffffffffffffffffffffffffffffffffffff9c81019081116118a75760025560a0611f0b565b60c881018082116118a7577f5c666af6ed3729c0a2a74ffa920fa12f0534058f0070b6091b78af188bb75d03916117708260a09360025511612521575b600254604051918252602082015260606040820152601360608201527f4661696c757265202d20696e63726561736564000000000000000000000000006080820152a1611f74565b6117706002556124d9565b60646040517f08c379a000000000000000000000000000000000000000000000000000000000815260206004820152601a60248201527f496e73756666696369656e7420424f4e452072656365697665640000000000006044820152fd5b90506020813d6020116125b4575b816125a56020938361436e565b81010312610c4d575184611edd565b3d9150612598565b9091506020813d6020116125e8575b816125d86020938361436e565b81010312610c4d57519084611df4565b3d91506125cb565b9092506020813d60201161261c575b8161260c6020938361436e565b81010312610c4d57519183611da7565b3d91506125ff565b5f90611d24565b60a46040517f08c379a000000000000000000000000000000000000000000000000000000000815260206004820152604360248201527f496e73756666696369656e7420455448202d20636f6e74726163742063616c6360448201527f756c61746564206f7074696d616c20616d6f756e74206175746f6d617469636160648201527f6c6c7900000000000000000000000000000000000000000000000000000000006084820152fd5b662386f26fc100009250611cef565b671bc16d674ec800009250611ce0565b7f4e487b71000000000000000000000000000000000000000000000000000000005f52601260045260245ffd5b7f01475057000000000000000000000000000000000000000000000000000000005f5260045ffd5b90501583611c82565b7fd2feecb1000000000000000000000000000000000000000000000000000000005f5260045ffd5b90506020813d6020116127a4575b816127956020938361436e565b81010312610c4d575181611c60565b3d9150612788565b7f3df07da5000000000000000000000000000000000000000000000000000000005f5260045ffd5b7f4e487b71000000000000000000000000000000000000000000000000000000005f52602160045260245ffd5b34610c4d575f600319360112610c4d57602063ffffffff60075460b01c16604051908152f35b34610c4d576060600319360112610c4d5760043563ffffffff81168103610c4d5760243561ffff81168103610c4d5760443563ffffffff81168103610c4d5775ffff0000000000000000000000000000000000000000906128946001600160a01b0360035416331461469f565b7fffffffffffff00000000000000000000ffffffffffffffffffffffffffffffff73ffffffff0000000000000000000000000000000079ffffffff000000000000000000000000000000000000000000006007549360b01b169560801b169116179160a01b1617176007555f80f35b34610c4d575f600319360112610c4d5760206001600160a01b0360035416604051908152f35b34610c4d575f600319360112610c4d576020604051601e8152f35b34610c4d575f600319360112610c4d576040517f70a082310000000000000000000000000000000000000000000000000000000081523060048201526020816024816001600160a01b037f0000000000000000000000000000000000000000000000000000000000000000165afa801561189c575f90612abc575b6007546040517f27e5c50a00000000000000000000000000000000000000000000000000000000815263ffffffff608083901c8116600483015260b09290921c9091166024820152915060208280604481015b03816001600160a01b037f0000000000000000000000000000000000000000000000000000000000000000165afa91821561189c575f92612a88575b50811580612a7d576126f457816080928204915b60405192818452826020850152604084015210156060820152f35b506080915f91612a62565b9091506020813d602011612ab4575b81612aa46020938361436e565b81010312610c4d57519082612a4e565b3d9150612a97565b506020813d602011612ae8575b81612ad66020938361436e565b81010312610c4d57612a1290516129bf565b3d9150612ac9565b34610c4d575f600319360112610c4d5760a06001600160a01b03600454166005546001600160a01b0360065416906040519283526001600160a01b038116602084015262ffffff81851c16604084015260b81c60020b60608301526080820152f35b34610c4d576020600319360112610c4d57600435805f52601060205260ff600460405f20015460c01c1660068110156127d457600303612b955761001a90614c27565b7fc35d1fe4000000000000000000000000000000000000000000000000000000005f5260045ffd5b34610c4d575f600319360112610c4d5760206040516e22d473030f116ddee9f6b43ac78ba38152f35b34610c4d576020600319360112610c4d57600435805f52601060205260ff600460405f20015460c01c1660068110156127d45760040361314857805f5260106020526064612c8d6fffffffffffffffffffffffffffffffff600460405f200178050000000000000000000000000000000000000000000000007fffffffffffffff00ffffffffffffffffffffffffffffffffffffffffffffffff82541617815554166145f7565b0480613086575b50805f52601060205260405f20905f5b600d54811015612f555767ffffffffffffffff612cc082614421565b90549060031b1c1690815f52600f6020526001600160a01b0360405f2054169182612cf1575b506001915001612ca4565b6fffffffffffffffffffffffffffffffff60048601541660405190856020830152612d22604083016001890161491f565b60a082015260a08152612d3660c08261436e565b60405193602085015260208452612d4e60408561436e565b612d5661448c565b612d70604051612d65816142fe565b620493e081526149c4565b9160405195612d7e8761431a565b8652602086015260408501525f606085015260808401526001600160a01b037f000000000000000000000000000000000000000000000000000000000000000016604051907f20487ded00000000000000000000000000000000000000000000000000000000825260208280612df88887600484016144d1565b0381845afa94851561189c5786925f96612f1c575b50602091612e4b916040519788809481937f96f4e9f900000000000000000000000000000000000000000000000000000000835289600484016144d1565b03925af19384612ee9575b50600193612ebf57505f7f98ee3ca939c7227b815619e1cdcc9ae9c5fcdd4733670d9feda787a1197dfc9a606060405160208152601b60208201527f57696e6e657273206e6f74696669636174696f6e206661696c656400000000006040820152a35b84612ce6565b907f5ec1d00d0b9c19f25e29b25bcf626ce9bee8cd52d197895cee3f89f6a7ab5ea55f80a3612eb9565b90506020813d8211612f14575b81612f036020938361436e565b81010312610c4d5750836001612e56565b3d9150612ef6565b925094506020823d8211612f4d575b81612f386020938361436e565b81010312610c4d579051938591906020612e0d565b3d9150612f2b565b506007546fffffffffffffffffffffffffffffffff811690818314612f7657005b6fffffffffffffffffffffffffffffffff60016fffffffffffffffffffffffffffffffff1993011691829116176007555f526010602052600460405f20017fffffffffffffff00ffffffffffffffffffffffffffffffffffffffffffffffff815416815580547fffffffffffffffff0000000000000000ffffffffffffffffffffffffffffffff77ffffffffffffffff000000000000000000000000000000004260801b1691161790556fffffffffffffffffffffffffffffffff60075416907f867bc48474afbd71c32542f493801861b7fa916f53f0e706e1bb8a3f47709c286020604051848152a27fae4cf40c31a833f14b2aee71da8cb55d5fd1944a9ed5b7696022328921f6e3175f80a2005b604051907fa9059cbb00000000000000000000000000000000000000000000000000000000825261dead60048301528060248301526020826044815f6001600160a01b037f0000000000000000000000000000000000000000000000000000000000000000165af190811561189c577f6ef4855b666dcc7884561072e4358b28dfe01feb1b7f4dcebc00e62d50394ac79260209261312d575b50604051908152a181612c94565b61314390833d8511610c8857610c7b818361436e565b61311f565b7f99457c95000000000000000000000000000000000000000000000000000000005f5260045ffd5b34610c4d575f600319360112610c4d57602060405173e03a1074c86cfedd5c142c4f04f1a1536e2035438152f35b34610c4d575f600319360112610c4d57602060ff600154166040519015158152f35b34610c4d576020600319360112610c4d576001600160a01b036131e16143a9565b165f52601260205260206fffffffffffffffffffffffffffffffff60405f205416604051908152f35b34610c4d575f600319360112610c4d57602060405161dead8152f35b34610c4d575f600319360112610c4d5761323e614b66565b613246614b9d565b6fffffffffffffffffffffffffffffffff600754165f52601060205260ff600460405f20015460c01c1660068110156127d4576127ac576040517f70a082310000000000000000000000000000000000000000000000000000000081523360048201526020816024816001600160a01b037f0000000000000000000000000000000000000000000000000000000000000000165afa90811561189c575f916137ee575b5015612752576001600160a01b037f0000000000000000000000000000000000000000000000000000000000000000166040517f70a08231000000000000000000000000000000000000000000000000000000008152336004820152602081602481855afa801561189c575f906137b4575b670de0b6b3a764000091501061378c5760205f916064604051809481937f23b872dd000000000000000000000000000000000000000000000000000000008352336004840152306024840152670de0b6b3a764000060448401525af1801561189c5761376f575b506fffffffffffffffffffffffffffffffff600754165f52601060205260405f2080549060048210156123cd575f5b82811061374c575060405161340581614352565b3381526020810167ffffffffffffffff7f0000000000000000000000000000000000000000000000000000000000000000169384825260408301916001835260608401915f8352680100000000000000008110156118e55780600161346d9201875586614bd1565b949094612356576001600160a01b0380915116167fffffffffffffffffffffffff000000000000000000000000000000000000000085541617845551917fffff00000000000000000000ffffffffffffffffffffffffffffffffffffffff7dff00000000000000000000000000000000000000000000000000000000007cff000000000000000000000000000000000000000000000000000000007bffffffffffffffff000000000000000000000000000000000000000087549660a01b1693847fffffffff0000000000000000ffffffffffffffffffffffffffffffffffffffff881617885551151560e01b169384847fffffff000000000000000000ffffffffffffffffffffffffffffffffffffffff88161717875551151560e81b16931617171790556004808201916fffffffffffffffffffffffffffffffff80670de0b6b3a7640000818654160116166fffffffffffffffffffffffffffffffff19845416178355835f526005810160205260405f2063ffffffff8060018184541601161663ffffffff19825416179055835f526006810160205260405f206fffffffffffffffffffffffffffffffff80670de0b6b3a7640000818454160116166fffffffffffffffffffffffffffffffff19825416179055335f52601460205260405f2063ffffffff8060018184541601161663ffffffff19825416179055335f52601560205260405f2063ffffffff8060058184541601161663ffffffff1982541617905554146136cc575b506040515f81527fa67d03666a3149f7a9b8af8d3c3e51310454dee74e967409260559f680195f1060203392a360015f55005b78010000000000000000000000000000000000000000000000007fffffffffffffff00ffffffffffffffffffffffffffffffffffffffffffffffff8254161790556fffffffffffffffffffffffffffffffff600754167f99962c98c30a5f8b818884fdda971824a2598708ec3837d19a6cbfb5aa2b672e5f80a281613699565b6137568183614bd1565b50546001600160a01b031633146123a5576001016133f1565b6137879060203d602011610c8857610c7b818361436e565b6133c2565b7fdf5891e7000000000000000000000000000000000000000000000000000000005f5260045ffd5b506020813d6020116137e6575b816137ce6020938361436e565b81010312610c4d57670de0b6b3a7640000905161335b565b3d91506137c1565b90506020813d602011613818575b816138096020938361436e565b81010312610c4d5751816132e9565b3d91506137fc565b34610c4d575f600319360112610c4d57602060405160048152f35b34610c4d575f600319360112610c4d576138616001600160a01b0360035416331461469f565b613869614b9d565b60017fffffffffffffffffffffffffffffffffffffffffffffffffffffffffffffff00815416176001557f62e78cea01bee320cd4e420270b5ea74000d11b0c9f74754ebdbfc544b05a2586020604051338152a1005b34610c4d575f600319360112610c4d5760206040516001600160a01b037f0000000000000000000000000000000000000000000000000000000000000000168152f35b34610c4d575f600319360112610c4d57602060405167ffffffffffffffff7f0000000000000000000000000000000000000000000000000000000000000000168152f35b34610c4d575f600319360112610c4d5761395e614b66565b335f5260126020526fffffffffffffffffffffffffffffffff60405f2054168015613a7e57335f52601260205260405f206fffffffffffffffffffffffffffffffff1981541690556040517fa9059cbb000000000000000000000000000000000000000000000000000000008152602081806139f4853360048401602090939291936001600160a01b0360408201951681520152565b03815f6001600160a01b037f0000000000000000000000000000000000000000000000000000000000000000165af1801561189c57613a61575b506040519081527fbc158bb64f05d6383aea69bbb0b20c1bbf4b7a18f63359c5649b7c39e29d388460203392a260015f55005b613a799060203d602011610c8857610c7b818361436e565b613a2e565b7f26325997000000000000000000000000000000000000000000000000000000005f5260045ffd5b34610c4d575f600319360112610c4d5760206040516001600160a01b037f0000000000000000000000000000000000000000000000000000000000000000168152f35b34610c4d575f600319360112610c4d5760206040516001600160a01b037f0000000000000000000000000000000000000000000000000000000000000000168152f35b34610c4d575f600319360112610c4d575f6080604051613b4b8161431a565b828152826020820152826040820152826060820152015260a0613b6c61462d565b610fda60405180926001600160a01b036080809282815116855282602082015116602086015262ffffff6040820151166040860152606081015160020b6060860152015116910152565b34610c4d575f600319360112610c4d57602063ffffffff60075460801c16604051908152f35b34610c4d576040600319360112610c4d5760243567ffffffffffffffff8111610c4d5736602382011215610c4d57806004013590613c1982614391565b91613c27604051938461436e565b8083526024602084019160051b83010191368311610c4d57602401905b828210613cba57836001600160a01b037f00000000000000000000000000000000000000000000000000000000000000001690813303613c8a5761001a90600435614a03565b507f8ba9316e000000000000000000000000000000000000000000000000000000005f523360045260245260445ffd5b8135815260209182019101613c44565b34610c4d576020600319360112610c4d576004355f526011602052606060405f205460ff604051916fffffffffffffffffffffffffffffffff81168352818160801c161515602084015260881c1615156040820152f35b34610c4d576020600319360112610c4d576004355f52601060205260ff600460405f20015460c01c1660068110156127d457602090600160405191148152f35b34610c4d575f600319360112610c4d575f5f90604051915f602084015260016040840152606080840152600460808401527f746573740000000000000000000000000000000000000000000000000000000060a084015260a08352613dc760c08461436e565b604051925f602085015260208452613de060408561436e565b613de861448c565b613e02604051613df7816142fe565b62030d4081526149c4565b9160405195613e108761431a565b8652602086015260408501525f60608501526080840152606092604051613e37858261436e565b84368237613e53604051916001602084015260408301906143f1565b673782dace9d90000060a082015260a08152613e7060c08261436e565b604051905f602083015260208252613e8960408361436e565b613e9161448c565b613ea0604051612d65816142fe565b9160405193613eae8561431a565b8452602084015260408301525f868301526080820152600d549182613f08575b50508260021b838104600414841517156118a757613eef613ef5928461460d565b90614620565b9060405192835260208301526040820152f35b9192509250600d541561408a57600d5f5267ffffffffffffffff60205f20541692613f8d60206001600160a01b037f00000000000000000000000000000000000000000000000000000000000000001693604051809381927f20487ded00000000000000000000000000000000000000000000000000000000835289600484016144d1565b0381865afa5f918161404e575b509260209291613feb94155f14614048575066038d7ea4c68000955b6040518095819482937f20487ded000000000000000000000000000000000000000000000000000000008452600484016144d1565b03915afa5f9181614014575b5061400e575066071afd498d0000905b8480613ece565b90614007565b9091506020813d602011614040575b816140306020938361436e565b81010312610c4d57519085613ff7565b3d9150614023565b95613fb6565b929150926020833d602011614082575b8161406b6020938361436e565b81010312610c4d5791519192909190613feb613f9a565b3d915061405e565b7f4e487b71000000000000000000000000000000000000000000000000000000005f52603260045260245ffd5b34610c4d575f600319360112610c4d5760206040516001600160a01b037f0000000000000000000000000000000000000000000000000000000000000000168152f35b34610c4d576020600319360112610c4d576004355f52601060205260ff600460405f20015460c01c1660068110156127d457602090600460405191148152f35b34610c4d575f600319360112610c4d57602047604051908152f35b34610c4d575f600319360112610c4d576020611884614478565b5f600319360112610c4d5734156141ae576040513481527f438b434a67966a448f9ef5bd39952b13cd1f9d8deae17d704442ed7b23f2f04360203392a2005b60646040517f08c379a000000000000000000000000000000000000000000000000000000000815260206004820152601e60248201527f4d7573742073656e642045544820666f7220434349502066756e64696e6700006044820152fd5b34610c4d575f600319360112610c4d576020604051603c8152f35b34610c4d575f600319360112610c4d5760206040516305f5e1008152f35b34610c4d576020600319360112610c4d57600435907fffffffff000000000000000000000000000000000000000000000000000000008216809203610c4d57817f85572ffb00000000000000000000000000000000000000000000000000000000602093149081156142b9575b5015158152f35b7f01ffc9a700000000000000000000000000000000000000000000000000000000915014836142b2565b34610c4d575f600319360112610c4d57602060405160058152f35b6020810190811067ffffffffffffffff8211176118e557604052565b60a0810190811067ffffffffffffffff8211176118e557604052565b6040810190811067ffffffffffffffff8211176118e557604052565b6080810190811067ffffffffffffffff8211176118e557604052565b90601f601f19910116810190811067ffffffffffffffff8211176118e557604052565b67ffffffffffffffff81116118e55760051b60200190565b600435906001600160a01b0382168203610c4d57565b90601f19601f602080948051918291828752018686015e5f8582860101520116010190565b9060068210156127d45752565b905f905b6003821061440257505050565b6020806001926001600160a01b038651168152019301910190916143f5565b90600d5482101561408a57600d5f52600282901c7fd7b6990105719101dabeb77144f2a3385c8033acd3af97e9423a695e81ad1eb5019160031b60181690565b6004359067ffffffffffffffff82168203610c4d57565b61448061494f565b61448957505f90565b90565b6040519061449b60208361436e565b5f80835282815b8281106144ae57505050565b6020906040516144bd81614336565b5f81525f83820152828285010152016144a2565b9067ffffffffffffffff9093929316815260406020820152614536614502845160a0604085015260e08401906143bf565b60208501517fffffffffffffffffffffffffffffffffffffffffffffffffffffffffffffffc08483030160608501526143bf565b906040840151917fffffffffffffffffffffffffffffffffffffffffffffffffffffffffffffffc0828203016080830152602080845192838152019301905f5b8181106145cc575050506080846001600160a01b036060614489969701511660a084015201519060c07fffffffffffffffffffffffffffffffffffffffffffffffffffffffffffffffc0828503019101526143bf565b825180516001600160a01b031686526020908101518187015260409095019490920191600101614576565b906005820291808304600514901517156118a757565b818102929181159184041417156118a757565b919082018092116118a757565b6040519061463a8261431a565b816001600160a01b036004541681526005546001600160a01b038116602083015262ffffff8160a01c16604083015260b81c60020b606082015260806001600160a01b0360065416910152565b90816020910312610c4d57518015158103610c4d5790565b156146a657565b60646040517f08c379a000000000000000000000000000000000000000000000000000000000815260206004820152601760248201527f43616c6c6572206973206e6f74207468652061646d696e0000000000000000006044820152fd5b67ffffffffffffffff81116118e557601f01601f191660200190565b3d1561474a573d9061473182614704565b9161473f604051938461436e565b82523d5f602084013e565b606090565b919082039182116118a757565b614764614fa9565b905061476e6150a2565b9091159081156148d0575b5061486a5780156126f457600254612710019081612710116118a757612710916147ac91670de0b6b3a76400000461460d565b04612ee0810290808204612ee014901517156118a757612710900490671bc16d674ec80000821161485a575b662386f26fc10000821061484b575b6001906040516147f860608261436e565b602e81527f436f6e74726163742077696c6c206175746f6d61746963616c6c79207573652060208201527f6f7074696d616c20616d6f756e74000000000000000000000000000000000000604082015290565b662386f26fc1000091506147e7565b671bc16d674ec8000091506147d8565b505f905f9060405161487d60608261436e565b603281527f45544820656e7472792074656d706f726172696c7920756e617661696c61626c60208201527f65202d2075736520424f4e4520656e7472790000000000000000000000000000604082015290565b9050155f614779565b81601f82011215610c4d578035906148f082614704565b926148fe604051948561436e565b82845260208383010111610c4d57815f926020809301838601378301015290565b905f905b6003821061493057505050565b6001602081926001600160a01b03865416815201930191019091614923565b6149576150a2565b1580156149bc575b6149b55780156126f457600254612710019081612710116118a7576127109161499191670de0b6b3a76400000461460d565b04906509184e72a000821015806149a55790565b50674563918244f4000082111590565b505f905f90565b50801561495f565b604051907f97a657c90000000000000000000000000000000000000000000000000000000060208301525160248201526024815261448960448261436e565b90815f52601160205260405f2090815460ff8160881c1615614b26577fffffffffffffffffffffffffffffff00ffffffffffffffffffffffffffffffff1670010000000000000000000000000000000017825580516001830167ffffffffffffffff82116118e5576801000000000000000082116118e5578054828255808310614b40575b5060208301905f5260205f205f5b838110614b2c57505050506fffffffffffffffffffffffffffffffff82541690815f52601060205260ff600460405f20015460c01c1660068110156127d457600203614b26577f41c9b09716a74f8a100ce1159febf82ab674e27ff67c16f4fed74d6fc1c6286992614b1b6fffffffffffffffffffffffffffffffff92602094615dba565b5416604051908152a2565b50505050565b600190602084519401938184015501614a96565b815f528260205f2091820191015b818110614b5b5750614a88565b5f8155600101614b4e565b60025f5414614b755760025f55565b7f3ee5aeb5000000000000000000000000000000000000000000000000000000005f5260045ffd5b60ff60015416614ba957565b7fd93c0665000000000000000000000000000000000000000000000000000000005f5260045ffd5b805482101561408a575f5260205f2001905f90565b600382101561408a5701905f90565b906fffffffffffffffffffffffffffffffff809116911601906fffffffffffffffffffffffffffffffff82116118a757565b805f52601060205260405f209060048201906fffffffffffffffffffffffffffffffff8254168015614b2657603c810293818504603c036118a7576064614c6d836145f7565b0490601e830295838704601e036118a7579495946003606490910404906001015f5b60038110614e94575050506fffffffffffffffffffffffffffffffff166001600160a01b037f000000000000000000000000000000000000000000000000000000000000000016805f52601260205260405f206fffffffffffffffffffffffffffffffff614d008482845416614bf5565b166fffffffffffffffffffffffffffffffff198254161790555f5260136020526fffffffffffffffffffffffffffffffff614d4260405f209282845416614bf5565b166fffffffffffffffffffffffffffffffff198254161790556fffffffffffffffffffffffffffffffff600560645f95040416925b6005811015614e1f576001906001600160a01b0381600801818154165f52601260205260405f206fffffffffffffffffffffffffffffffff614dbc8982845416614bf5565b166fffffffffffffffffffffffffffffffff1982541617905554165f52601360205260405f206fffffffffffffffffffffffffffffffff614e008782845416614bf5565b166fffffffffffffffffffffffffffffffff1982541617905501614d77565b50604092507f329f5cd0d1a0c708183708da49f688d169bfd6e9203310c8d56d4d26c144fafe9378040000000000000000000000000000000000000000000000007fffffffffffffff00ffffffffffffffffffffffffffffffffffffffffffffffff82541617905582519182526020820152a1565b806001600160a01b03614eac600193859b9a9b614be6565b90549060031b1c16614ec2575b01969596614c8f565b6fffffffffffffffffffffffffffffffff84166001600160a01b03614ee78386614be6565b90549060031b1c165f52601260205260405f206fffffffffffffffffffffffffffffffff614f188382845416614bf5565b166fffffffffffffffffffffffffffffffff198254161790556001600160a01b03614f438386614be6565b90549060031b1c165f5260136020526fffffffffffffffffffffffffffffffff614f7460405f209282845416614bf5565b166fffffffffffffffffffffffffffffffff19825416179055614eb9565b519069ffffffffffffffffffff82168203610c4d57565b5f905f906040517ffeaf968c00000000000000000000000000000000000000000000000000000000815260a0816004816001600160a01b037f0000000000000000000000000000000000000000000000000000000000000000165afa805f925f9261504c575b5061501b57505f925050565b5f82139081615035575b5061502d5750565b925060019150565b610e109150615044904261474f565b11155f615025565b9250905060a0823d60a01161509a575b8161506960a0938361436e565b81010312610c4d5761507a82614f92565b506020820151615091608060608501519401614f92565b5091905f61500f565b3d915061505c565b6001600160a01b036150b760a06110ce61462d565b5050501680156149b557806150cb9161460d565b60c01c90600a821015806150dc5790565b506305f5e10082111590565b67ffffffffffffffff60208201511690815f52600e60205260ff60405f20541615615c235760600151604081805181010312610c4d576020810151906001600160a01b038216809203610c4d57604001516040517f70a082310000000000000000000000000000000000000000000000000000000081528260048201526020816024816001600160a01b037f0000000000000000000000000000000000000000000000000000000000000000165afa90811561189c575f91615bf1575b5015801590615bb4576040516151bc60408261436e565b600881527f417070726f76656400000000000000000000000000000000000000000000000060208201525b90845f52600f6020526001600160a01b0360405f2054169281615ba2575b50615424575b816152165750505050565b61523f6116d5916040519283918660208401525f604084015260608084015260808301906143bf565b6040519160208301526020825261525760408361436e565b61525f61448c565b61526e604051613df7816142fe565b916040519361527c8561431a565b8452602084015260408301525f606083015260808201526001600160a01b037f000000000000000000000000000000000000000000000000000000000000000016604051917f20487ded000000000000000000000000000000000000000000000000000000008352602083806152f68489600484016144d1565b0381855afa92831561189c575f936153ef575b50602091615347916040519485809481937f96f4e9f90000000000000000000000000000000000000000000000000000000083528a600484016144d1565b03925af190816153c0575b506153b9577f98ee3ca939c7227b815619e1cdcc9ae9c5fcdd4733670d9feda787a1197dfc9a606060405160208152601560208201527f456e74727920726573706f6e7365206661696c656400000000000000000000006040820152a35b5f808080614b26565b50506153b0565b6020813d6020116153e7575b816153d96020938361436e565b81010312610c4d5751615352565b3d91506153cc565b9092506020813d60201161541c575b8161540b6020938361436e565b81010312610c4d5751916020615309565b3d91506153fe565b50916fffffffffffffffffffffffffffffffff600754165f52601060205260405f209260ff600485015460c01c1660068110156127d457158080615b97575b15615b15575083545f94855b828110615ae1575b505050909192155f14615a9f576fffffffffffffffffffffffffffffffff600754165f52601060205260405f20805460048110156123cd575f5b818110615a7c5750604051906154c682614352565b858252602082019085825260408301915f835260608401915f8352680100000000000000008110156118e5578060016155029201875586614bd1565b949094612356576001600160a01b0380915116167fffffffffffffffffffffffff000000000000000000000000000000000000000085541617845551917fffff00000000000000000000ffffffffffffffffffffffffffffffffffffffff7dff00000000000000000000000000000000000000000000000000000000007cff000000000000000000000000000000000000000000000000000000007bffffffffffffffff000000000000000000000000000000000000000087549660a01b1693847fffffffff0000000000000000ffffffffffffffffffffffffffffffffffffffff881617885551151560e01b169384847fffffff000000000000000000ffffffffffffffffffffffffffffffffffffffff88161717875551151560e81b16931617171790556004808201916fffffffffffffffffffffffffffffffff80670de0b6b3a7640000818654160116166fffffffffffffffffffffffffffffffff1984541617835567ffffffffffffffff85165f526005810160205260405f2063ffffffff8060018184541601161663ffffffff1982541617905567ffffffffffffffff85165f526006810160205260405f206fffffffffffffffffffffffffffffffff80670de0b6b3a7640000818454160116166fffffffffffffffffffffffffffffffff19825416179055855f52601460205260405f2063ffffffff8060018184541601161663ffffffff19825416179055855f52601560205260405f2063ffffffff8060058184541601161663ffffffff1982541617905554146159fc575b5080615777575b5060207f2b9e41ab9949392f3d5b732fc3ad6794d6e7bff5dc7da34f7bbcd02a2cb52b4d91604051908152a2565b6040906116d56157d7835161578c858261436e565b600e81527f456e74727920617070726f7665640000000000000000000000000000000000006020820152845192839188602084015260018784015260608084015260808301906143bf565b8251916020830152602082526157ed838361436e565b6157f561448c565b6158038451613df7816142fe565b918451936158108561431a565b84526020840152838301525f606083015260808201526001600160a01b037f0000000000000000000000000000000000000000000000000000000000000000168251917f20487ded000000000000000000000000000000000000000000000000000000008352602083806158888489600484016144d1565b0381855afa9283156159f2579086949392915f936159b8575b506020916158de9185519485809481937f96f4e9f90000000000000000000000000000000000000000000000000000000083528b600484016144d1565b03925af1908161597e575b509260209281927f2b9e41ab9949392f3d5b732fc3ad6794d6e7bff5dc7da34f7bbcd02a2cb52b4d95155f14615976576060817f456e74727920726573706f6e7365206661696c656400000000000000000000007f98ee3ca939c7227b815619e1cdcc9ae9c5fcdd4733670d9feda787a1197dfc9a935191888352601589840152820152a35b9150615749565b50505061596f565b939192506020843d6020116159b0575b8161599b6020938361436e565b81010312610c4d5790925083919060206158e9565b3d915061598e565b945091506020843d6020116159ea575b816159d56020938361436e565b81010312610c4d5792518593909160206158a1565b3d91506159c8565b84513d5f823e3d90fd5b78010000000000000000000000000000000000000000000000007fffffffffffffff00ffffffffffffffffffffffffffffffffffffffffffffffff8254161790556fffffffffffffffffffffffffffffffff600754167f99962c98c30a5f8b818884fdda971824a2598708ec3837d19a6cbfb5aa2b672e5f80a25f615742565b856001600160a01b03615a8f8386614bd1565b505416146123a5576001016154b1565b5f92919250604051615ab260408261436e565b600f81527f4475706c696361746520656e7472790000000000000000000000000000000000602082015261520b565b856001600160a01b03615af48385614bd1565b50541614615b045760010161546f565b50600195505f915081905080615477565b91935090615b5a57604051615b2b60408261436e565b601081527f526f756e64206e6f742061637469766500000000000000000000000000000000602082015261520b565b604051615b6860408261436e565b600a81527f526f756e642066756c6c00000000000000000000000000000000000000000000602082015261520b565b506004855410615463565b670de0b6b3a76400009150145f615205565b604051615bc260408261436e565b601081527f4e6f204e4654206f776e6572736869700000000000000000000000000000000060208201526151e7565b90506020813d602011615c1b575b81615c0c6020938361436e565b81010312610c4d57515f6151a5565b3d9150615bff565b7fe1163aab000000000000000000000000000000000000000000000000000000005f5260045ffd5b80511561408a5760200190565b80516001101561408a5760400190565b80516002101561408a5760600190565b805182101561408a5760209160051b010190565b9080602083519182815201916020808360051b8301019401925f915b838310615cb757505050505090565b9091929394602080615cd583601f19866001960301875289516143bf565b97019301930191939290615ca8565b60209060246001600160a01b0394936040518481019182526006604082015260408152615d1260608261436e565b51902060405195869384927f1e2eaeaf0000000000000000000000000000000000000000000000000000000084526004840152165afa91821561189c575f92615d7c575b506001600160a01b038216918060a01c60020b9162ffffff808360b81c169260d01c1690565b9091506020813d602011615da8575b81615d986020938361436e565b81010312610c4d5751905f615d56565b3d9150615d8b565b81156126f4570690565b90815f52601060205260405f2090600482019060ff825460c01c1660068110156127d457600203614b265782548015615fbc5760038110615fb557600391905b615e0381614391565b92615e11604051948561436e565b818452601f19615e2083614391565b013660208601375f905b808210615eb65750505050507f0d7cb62ee6b779150e79c781e938a5c77e07c9357d884aa5ae0e401881c36b4f92615eae60809360019378030000000000000000000000000000000000000000000000007fffffffffffffff00ffffffffffffffffffffffffffffffffffffffffffffffff8254161790556040519384910161491f565b6060820152a1565b92969094615edd83615ed7615ed18b9c969a989c518a615db0565b8b615c78565b51615db0565b935f945b615eeb818c615c78565b51151580615fac575b15615f3f57600181018091116118a75788615f0e91615db0565b947fffffffffffffffffffffffffffffffffffffffffffffffffffffffffffffffff81146118a75760010194615ee1565b886001939892959b9799969a949a10615f5f575b50019192919092615e2a565b615f7d8184615f766001600160a01b03948b615c78565b528a614bd1565b505416615f8c82848b01614be6565b6001600160a01b03829392549160031b92831b921b19161790555f615f53565b50888610615ef4565b9081615dfa565b505050505056","linkReferences":{}},"methodIdentifiers":{"BURN_SHARE()":"93b998fb","DEAD_ADDRESS()":"4e6fd6c4","DEV_SHARE()":"029dd6ba","ENTRY_FEE_BONE()":"c1609e92","FUNDING_SHARE()":"7649002a","MAX_BONE_PER_ETH()":"0aefcd0b","MAX_PLAYERS()":"4411b3eb","MAX_SLIPPAGE()":"f9759518","MIN_BONE_PER_ETH()":"b51235dd","MIN_SLIPPAGE()":"854c2a10","PERMIT2()":"6afdd850","POINTS_PER_ENTRY()":"d968f51b","POOL_MANAGER()":"62308e85","UNIVERSAL_ROUTER()":"e8dd7fc3","WINNERS_SHARE()":"0c154afe","_performSwap(uint256,uint256)":"889da76e","allowedChains(uint64)":"ed0b4814","baseSlippage()":"f677165b","boneEthPoolKey()":"71b859d6","boneToken()":"b7753a56","callbackGasLimit()":"24f74697","canEnterWithETH()":"9728fb8d","ccipReceive((bytes32,uint64,bytes,bytes,(address,uint256)[]))":"85572ffb","chainContracts(uint64)":"bb7e0bef","completeRound(uint256)":"625b8186","configuredChains(uint256)":"9bf3f802","contractAdmin()":"77955245","currentChainSelector()":"3d54cb6f","currentRoundId()":"9cbe5efd","devAddress()":"3ad10ef6","distributePrizes(uint256)":"6ca3fc3b","enterWithBone()":"4d7614b1","enterWithETH()":"84182daf","entriesCount(address)":"eafa02b4","ethUsdPriceFeed()":"42f6fb29","fundCCIPResponses()":"0f2f8f7f","fundingAddresses(uint256)":"8984d769","getAdmin()":"6e9960c3","getBalance()":"12065fe0","getCCIPResponseCosts()":"139598a9","getETHAmountForEntry()":"10b78939","getLinkToken()":"e76d5168","getOptimalETHAmount()":"854c94bf","getPoolKeyInfo()":"285f6648","getPoolPriceInfo()":"b2db17d3","getRoundInfo(uint256)":"88c3ffb0","getRouter()":"b0f479a1","getVRFFundingStatus()":"7615aeb9","i_vrfV2PlusWrapper()":"9ed0868d","isRoundReadyForCompletion(uint256)":"121c8ad1","isRoundReadyForPrizeDistribution(uint256)":"cd3ec533","isRoundReadyForVRF(uint256)":"13a7d6e6","lotteryRounds(uint256)":"b7285ccb","nftContract()":"d56d229d","numWords()":"7ccfd7fc","pauseContract()":"439766ce","paused()":"5c975abb","pendingWithdrawalsBone(address)":"52031975","permit2()":"12261ee7","playerPoints(address)":"9b211fc4","poolManager()":"dc4c90d3","rawFulfillRandomWords(uint256,uint256[])":"1fe543e3","requestConfirmations()":"b0fb162f","requestRandomWords()":"e0c86289","setChainContract(uint64,address)":"ed766984","setVRFConfig(uint32,uint16,uint32)":"7b450dba","supportsInterface(bytes4)":"01ffc9a7","totalWinningsBone(address)":"b2110fb8","universalRouter()":"35a9e4df","unpauseContract()":"b33712c5","vrfRequests(uint256)":"1a1d9252","withdraw()":"3ccfd60b"},"id":72}