{"abi":[{"type":"constructor","inputs":[{"name":"_ccipRouter","type":"address","internalType":"address"},{"name":"_currentChainSelector","type":"uint64","internalType":"uint64"},{"name":"_nftContract","type":"address","internalType":"address"},{"name":"_boneToken","type":"address","internalType":"address"},{"name":"_devAddress","type":"address","internalType":"address payable"},{"name":"_fundingAddresses","type":"address[5]","internalType":"address payable[5]"},{"name":"_boneEthPoolKey","type":"tuple","internalType":"struct PoolKey","components":[{"name":"currency0","type":"address","internalType":"Currency"},{"name":"currency1","type":"address","internalType":"Currency"},{"name":"fee","type":"uint24","internalType":"uint24"},{"name":"tickSpacing","type":"int24","internalType":"int24"},{"name":"hooks","type":"address","internalType":"contract IHooks"}]}],"stateMutability":"nonpayable"},{"type":"receive","stateMutability":"payable"},{"type":"function","name":"BURN_SHARE","inputs":[],"outputs":[{"name":"","type":"uint8","internalType":"uint8"}],"stateMutability":"view"},{"type":"function","name":"DEAD_ADDRESS","inputs":[],"outputs":[{"name":"","type":"address","internalType":"address"}],"stateMutability":"view"},{"type":"function","name":"DEV_SHARE","inputs":[],"outputs":[{"name":"","type":"uint8","internalType":"uint8"}],"stateMutability":"view"},{"type":"function","name":"ENTRY_FEE_BONE","inputs":[],"outputs":[{"name":"","type":"uint256","internalType":"uint256"}],"stateMutability":"view"},{"type":"function","name":"FUNDING_SHARE","inputs":[],"outputs":[{"name":"","type":"uint8","internalType":"uint8"}],"stateMutability":"view"},{"type":"function","name":"MAX_PLAYERS","inputs":[],"outputs":[{"name":"","type":"uint8","internalType":"uint8"}],"stateMutability":"view"},{"type":"function","name":"PERMIT2","inputs":[],"outputs":[{"name":"","type":"address","internalType":"address"}],"stateMutability":"view"},{"type":"function","name":"POINTS_PER_ENTRY","inputs":[],"outputs":[{"name":"","type":"uint8","internalType":"uint8"}],"stateMutability":"view"},{"type":"function","name":"POOL_MANAGER","inputs":[],"outputs":[{"name":"","type":"address","internalType":"address"}],"stateMutability":"view"},{"type":"function","name":"SEPOLIA_WETH","inputs":[],"outputs":[{"name":"","type":"address","internalType":"address"}],"stateMutability":"view"},{"type":"function","name":"WINNERS_SHARE","inputs":[],"outputs":[{"name":"","type":"uint8","internalType":"uint8"}],"stateMutability":"view"},{"type":"function","name":"allowedChains","inputs":[{"name":"","type":"uint64","internalType":"uint64"}],"outputs":[{"name":"","type":"bool","internalType":"bool"}],"stateMutability":"view"},{"type":"function","name":"autoCompleteRound","inputs":[{"name":"roundId","type":"uint256","internalType":"uint256"}],"outputs":[],"stateMutability":"nonpayable"},{"type":"function","name":"boneEthPoolKey","inputs":[],"outputs":[{"name":"currency0","type":"address","internalType":"Currency"},{"name":"currency1","type":"address","internalType":"Currency"},{"name":"fee","type":"uint24","internalType":"uint24"},{"name":"tickSpacing","type":"int24","internalType":"int24"},{"name":"hooks","type":"address","internalType":"contract IHooks"}],"stateMutability":"view"},{"type":"function","name":"boneToken","inputs":[],"outputs":[{"name":"","type":"address","internalType":"contract IERC20"}],"stateMutability":"view"},{"type":"function","name":"callbackGasLimit","inputs":[],"outputs":[{"name":"","type":"uint32","internalType":"uint32"}],"stateMutability":"view"},{"type":"function","name":"ccipReceive","inputs":[{"name":"message","type":"tuple","internalType":"struct Client.Any2EVMMessage","components":[{"name":"messageId","type":"bytes32","internalType":"bytes32"},{"name":"sourceChainSelector","type":"uint64","internalType":"uint64"},{"name":"sender","type":"bytes","internalType":"bytes"},{"name":"data","type":"bytes","internalType":"bytes"},{"name":"destTokenAmounts","type":"tuple[]","internalType":"struct Client.EVMTokenAmount[]","components":[{"name":"token","type":"address","internalType":"address"},{"name":"amount","type":"uint256","internalType":"uint256"}]}]}],"outputs":[],"stateMutability":"nonpayable"},{"type":"function","name":"chainContracts","inputs":[{"name":"","type":"uint64","internalType":"uint64"}],"outputs":[{"name":"","type":"address","internalType":"address"}],"stateMutability":"view"},{"type":"function","name":"changeAdmin","inputs":[{"name":"newAdmin","type":"address","internalType":"address"}],"outputs":[],"stateMutability":"nonpayable"},{"type":"function","name":"completeRound","inputs":[{"name":"roundId","type":"uint256","internalType":"uint256"}],"outputs":[],"stateMutability":"nonpayable"},{"type":"function","name":"configuredChains","inputs":[{"name":"","type":"uint256","internalType":"uint256"}],"outputs":[{"name":"","type":"uint64","internalType":"uint64"}],"stateMutability":"view"},{"type":"function","name":"contractAdmin","inputs":[],"outputs":[{"name":"","type":"address","internalType":"address"}],"stateMutability":"view"},{"type":"function","name":"currentChainSelector","inputs":[],"outputs":[{"name":"","type":"uint64","internalType":"uint64"}],"stateMutability":"view"},{"type":"function","name":"currentRoundId","inputs":[],"outputs":[{"name":"","type":"uint128","internalType":"uint128"}],"stateMutability":"view"},{"type":"function","name":"devAddress","inputs":[],"outputs":[{"name":"","type":"address","internalType":"address payable"}],"stateMutability":"view"},{"type":"function","name":"distributePrizes","inputs":[{"name":"roundId","type":"uint256","internalType":"uint256"}],"outputs":[],"stateMutability":"nonpayable"},{"type":"function","name":"emergencySelectWinners","inputs":[{"name":"roundId","type":"uint256","internalType":"uint256"}],"outputs":[],"stateMutability":"nonpayable"},{"type":"function","name":"emergencyWithdrawETH","inputs":[],"outputs":[],"stateMutability":"nonpayable"},{"type":"function","name":"emergencyWithdrawTokens","inputs":[{"name":"token","type":"address","internalType":"address"},{"name":"amount","type":"uint256","internalType":"uint256"}],"outputs":[],"stateMutability":"nonpayable"},{"type":"function","name":"enterWithBone","inputs":[],"outputs":[],"stateMutability":"nonpayable"},{"type":"function","name":"enterWithETH","inputs":[],"outputs":[],"stateMutability":"payable"},{"type":"function","name":"entriesCount","inputs":[{"name":"","type":"address","internalType":"address"}],"outputs":[{"name":"","type":"uint32","internalType":"uint32"}],"stateMutability":"view"},{"type":"function","name":"fundVRFWithLink","inputs":[{"name":"amount","type":"uint256","internalType":"uint256"}],"outputs":[],"stateMutability":"nonpayable"},{"type":"function","name":"fundingAddresses","inputs":[{"name":"","type":"uint256","internalType":"uint256"}],"outputs":[{"name":"","type":"address","internalType":"address payable"}],"stateMutability":"view"},{"type":"function","name":"getAdmin","inputs":[],"outputs":[{"name":"","type":"address","internalType":"address"}],"stateMutability":"view"},{"type":"function","name":"getBalance","inputs":[],"outputs":[{"name":"","type":"uint256","internalType":"uint256"}],"stateMutability":"view"},{"type":"function","name":"getBonePriceFromPool","inputs":[],"outputs":[{"name":"bonePerEth","type":"uint256","internalType":"uint256"}],"stateMutability":"view"},{"type":"function","name":"getCurrentRoundPlayers","inputs":[],"outputs":[{"name":"","type":"tuple[]","internalType":"struct VRFLottery.Player[]","components":[{"name":"playerAddress","type":"address","internalType":"address"},{"name":"sourceChain","type":"uint64","internalType":"uint64"},{"name":"isLocal","type":"bool","internalType":"bool"},{"name":"paidWithETH","type":"bool","internalType":"bool"}]}],"stateMutability":"view"},{"type":"function","name":"getETHAmountForEntry","inputs":[],"outputs":[{"name":"ethNeeded","type":"uint256","internalType":"uint256"}],"stateMutability":"view"},{"type":"function","name":"getETHNeededForBone","inputs":[{"name":"boneAmount","type":"uint256","internalType":"uint256"}],"outputs":[{"name":"ethNeeded","type":"uint256","internalType":"uint256"}],"stateMutability":"view"},{"type":"function","name":"getLinkToken","inputs":[],"outputs":[{"name":"","type":"address","internalType":"contract LinkTokenInterface"}],"stateMutability":"view"},{"type":"function","name":"getPoolKeyInfo","inputs":[],"outputs":[{"name":"","type":"tuple","internalType":"struct PoolKey","components":[{"name":"currency0","type":"address","internalType":"Currency"},{"name":"currency1","type":"address","internalType":"Currency"},{"name":"fee","type":"uint24","internalType":"uint24"},{"name":"tickSpacing","type":"int24","internalType":"int24"},{"name":"hooks","type":"address","internalType":"contract IHooks"}]}],"stateMutability":"view"},{"type":"function","name":"getPoolPriceInfo","inputs":[],"outputs":[{"name":"sqrtPriceX96","type":"uint160","internalType":"uint160"},{"name":"bonePerEth","type":"uint256","internalType":"uint256"},{"name":"ethNeededForEntry","type":"uint256","internalType":"uint256"},{"name":"poolExists","type":"bool","internalType":"bool"}],"stateMutability":"view"},{"type":"function","name":"getRoundInfo","inputs":[{"name":"roundId","type":"uint256","internalType":"uint256"}],"outputs":[{"name":"playerCount","type":"uint256","internalType":"uint256"},{"name":"isActive","type":"bool","internalType":"bool"},{"name":"winnersSelected","type":"bool","internalType":"bool"},{"name":"prizesDistributed","type":"bool","internalType":"bool"},{"name":"roundCompleted","type":"bool","internalType":"bool"},{"name":"winners","type":"address[3]","internalType":"address[3]"},{"name":"totalPrizePool","type":"uint256","internalType":"uint256"},{"name":"startTime","type":"uint256","internalType":"uint256"}],"stateMutability":"view"},{"type":"function","name":"getRouter","inputs":[],"outputs":[{"name":"","type":"address","internalType":"address"}],"stateMutability":"view"},{"type":"function","name":"getVRFFundingStatus","inputs":[],"outputs":[{"name":"currentLinkBalance","type":"uint256","internalType":"uint256"},{"name":"estimatedCostPerRequest","type":"uint256","internalType":"uint256"},{"name":"requestsAffordable","type":"uint256","internalType":"uint256"},{"name":"sufficientFunds","type":"bool","internalType":"bool"}],"stateMutability":"view"},{"type":"function","name":"i_vrfV2PlusWrapper","inputs":[],"outputs":[{"name":"","type":"address","internalType":"contract IVRFV2PlusWrapper"}],"stateMutability":"view"},{"type":"function","name":"isETHAmountSufficient","inputs":[{"name":"ethAmount","type":"uint256","internalType":"uint256"}],"outputs":[{"name":"","type":"bool","internalType":"bool"}],"stateMutability":"view"},{"type":"function","name":"lotteryRounds","inputs":[{"name":"","type":"uint256","internalType":"uint256"}],"outputs":[{"name":"totalPrizePoolBone","type":"uint128","internalType":"uint128"},{"name":"startTime","type":"uint64","internalType":"uint64"},{"name":"isActive","type":"bool","internalType":"bool"},{"name":"winnersSelected","type":"bool","internalType":"bool"},{"name":"prizesDistributed","type":"bool","internalType":"bool"},{"name":"roundCompleted","type":"bool","internalType":"bool"}],"stateMutability":"view"},{"type":"function","name":"maxSlippage","inputs":[],"outputs":[{"name":"","type":"uint256","internalType":"uint256"}],"stateMutability":"view"},{"type":"function","name":"nftContract","inputs":[],"outputs":[{"name":"","type":"address","internalType":"contract IERC721"}],"stateMutability":"view"},{"type":"function","name":"numWords","inputs":[],"outputs":[{"name":"","type":"uint32","internalType":"uint32"}],"stateMutability":"view"},{"type":"function","name":"pauseContract","inputs":[],"outputs":[],"stateMutability":"nonpayable"},{"type":"function","name":"paused","inputs":[],"outputs":[{"name":"","type":"bool","internalType":"bool"}],"stateMutability":"view"},{"type":"function","name":"pendingWithdrawalsBone","inputs":[{"name":"","type":"address","internalType":"address"}],"outputs":[{"name":"","type":"uint128","internalType":"uint128"}],"stateMutability":"view"},{"type":"function","name":"permit2","inputs":[],"outputs":[{"name":"","type":"address","internalType":"contract IPermit2"}],"stateMutability":"view"},{"type":"function","name":"playerPoints","inputs":[{"name":"","type":"address","internalType":"address"}],"outputs":[{"name":"","type":"uint32","internalType":"uint32"}],"stateMutability":"view"},{"type":"function","name":"poolManager","inputs":[],"outputs":[{"name":"","type":"address","internalType":"contract IPoolManager"}],"stateMutability":"view"},{"type":"function","name":"rawFulfillRandomWords","inputs":[{"name":"_requestId","type":"uint256","internalType":"uint256"},{"name":"_randomWords","type":"uint256[]","internalType":"uint256[]"}],"outputs":[],"stateMutability":"nonpayable"},{"type":"function","name":"requestConfirmations","inputs":[],"outputs":[{"name":"","type":"uint16","internalType":"uint16"}],"stateMutability":"view"},{"type":"function","name":"setChainContract","inputs":[{"name":"chainSelector","type":"uint64","internalType":"uint64"},{"name":"contractAddress","type":"address","internalType":"address"}],"outputs":[],"stateMutability":"nonpayable"},{"type":"function","name":"setVRFConfig","inputs":[{"name":"_callbackGasLimit","type":"uint32","internalType":"uint32"},{"name":"_requestConfirmations","type":"uint16","internalType":"uint16"},{"name":"_numWords","type":"uint32","internalType":"uint32"}],"outputs":[],"stateMutability":"nonpayable"},{"type":"function","name":"supportsInterface","inputs":[{"name":"interfaceId","type":"bytes4","internalType":"bytes4"}],"outputs":[{"name":"","type":"bool","internalType":"bool"}],"stateMutability":"view"},{"type":"function","name":"totalWinningsBone","inputs":[{"name":"","type":"address","internalType":"address"}],"outputs":[{"name":"","type":"uint128","internalType":"uint128"}],"stateMutability":"view"},{"type":"function","name":"unpauseContract","inputs":[],"outputs":[],"stateMutability":"nonpayable"},{"type":"function","name":"updatePoolKey","inputs":[{"name":"_newPoolKey","type":"tuple","internalType":"struct PoolKey","components":[{"name":"currency0","type":"address","internalType":"Currency"},{"name":"currency1","type":"address","internalType":"Currency"},{"name":"fee","type":"uint24","internalType":"uint24"},{"name":"tickSpacing","type":"int24","internalType":"int24"},{"name":"hooks","type":"address","internalType":"contract IHooks"}]}],"outputs":[],"stateMutability":"nonpayable"},{"type":"function","name":"updateSwapParameters","inputs":[{"name":"_maxSlippage","type":"uint256","internalType":"uint256"}],"outputs":[],"stateMutability":"nonpayable"},{"type":"function","name":"vrfRequests","inputs":[{"name":"","type":"uint256","internalType":"uint256"}],"outputs":[{"name":"roundId","type":"uint128","internalType":"uint128"},{"name":"fulfilled","type":"bool","internalType":"bool"},{"name":"exists","type":"bool","internalType":"bool"}],"stateMutability":"view"},{"type":"function","name":"withdraw","inputs":[],"outputs":[],"stateMutability":"nonpayable"},{"type":"event","name":"AdminChanged","inputs":[{"name":"previousAdmin","type":"address","indexed":true,"internalType":"address"},{"name":"newAdmin","type":"address","indexed":true,"internalType":"address"}],"anonymous":false},{"type":"event","name":"CrossChainEntryReceived","inputs":[{"name":"player","type":"address","indexed":true,"internalType":"address"},{"name":"sourceChain","type":"uint64","indexed":false,"internalType":"uint64"}],"anonymous":false},{"type":"event","name":"ETHSwappedToBone","inputs":[{"name":"player","type":"address","indexed":true,"internalType":"address"},{"name":"ethSent","type":"uint256","indexed":false,"internalType":"uint256"},{"name":"ethUsed","type":"uint256","indexed":false,"internalType":"uint256"},{"name":"ethRefunded","type":"uint256","indexed":false,"internalType":"uint256"},{"name":"boneReceived","type":"uint256","indexed":false,"internalType":"uint256"}],"anonymous":false},{"type":"event","name":"ETHWithdrawn","inputs":[{"name":"recipient","type":"address","indexed":true,"internalType":"address"},{"name":"amount","type":"uint256","indexed":false,"internalType":"uint256"}],"anonymous":false},{"type":"event","name":"LinkFunded","inputs":[{"name":"amount","type":"uint256","indexed":false,"internalType":"uint256"}],"anonymous":false},{"type":"event","name":"LotteryEnter","inputs":[{"name":"player","type":"address","indexed":true,"internalType":"address"},{"name":"sourceChain","type":"uint64","indexed":true,"internalType":"uint64"},{"name":"paidWithETH","type":"bool","indexed":false,"internalType":"bool"}],"anonymous":false},{"type":"event","name":"NewRoundStarted","inputs":[{"name":"roundId","type":"uint256","indexed":true,"internalType":"uint256"}],"anonymous":false},{"type":"event","name":"Paused","inputs":[{"name":"account","type":"address","indexed":false,"internalType":"address"}],"anonymous":false},{"type":"event","name":"PoolKeyUpdated","inputs":[{"name":"newPoolKey","type":"tuple","indexed":false,"internalType":"struct PoolKey","components":[{"name":"currency0","type":"address","internalType":"Currency"},{"name":"currency1","type":"address","internalType":"Currency"},{"name":"fee","type":"uint24","internalType":"uint24"},{"name":"tickSpacing","type":"int24","internalType":"int24"},{"name":"hooks","type":"address","internalType":"contract IHooks"}]}],"anonymous":false},{"type":"event","name":"PrizesDistributed","inputs":[{"name":"roundId","type":"uint256","indexed":false,"internalType":"uint256"},{"name":"totalPrizes","type":"uint256","indexed":false,"internalType":"uint256"}],"anonymous":false},{"type":"event","name":"RoundCompleted","inputs":[{"name":"roundId","type":"uint256","indexed":true,"internalType":"uint256"},{"name":"newRoundId","type":"uint256","indexed":false,"internalType":"uint256"}],"anonymous":false},{"type":"event","name":"SwapParametersUpdated","inputs":[{"name":"newMaxSlippage","type":"uint256","indexed":false,"internalType":"uint256"}],"anonymous":false},{"type":"event","name":"TokensBurned","inputs":[{"name":"boneAmount","type":"uint256","indexed":false,"internalType":"uint256"}],"anonymous":false},{"type":"event","name":"Unpaused","inputs":[{"name":"account","type":"address","indexed":false,"internalType":"address"}],"anonymous":false},{"type":"event","name":"VRFFulfilled","inputs":[{"name":"requestId","type":"uint256","indexed":true,"internalType":"uint256"},{"name":"roundId","type":"uint256","indexed":false,"internalType":"uint256"}],"anonymous":false},{"type":"event","name":"VRFRequested","inputs":[{"name":"requestId","type":"uint256","indexed":true,"internalType":"uint256"},{"name":"roundId","type":"uint256","indexed":false,"internalType":"uint256"}],"anonymous":false},{"type":"event","name":"WinnersSelected","inputs":[{"name":"winners","type":"address[3]","indexed":false,"internalType":"address[3]"},{"name":"roundId","type":"uint256","indexed":false,"internalType":"uint256"}],"anonymous":false},{"type":"event","name":"WithdrawalMade","inputs":[{"name":"recipient","type":"address","indexed":true,"internalType":"address"},{"name":"amount","type":"uint256","indexed":false,"internalType":"uint256"}],"anonymous":false},{"type":"error","name":"ChainNotAllowed","inputs":[]},{"type":"error","name":"DuplicateEntry","inputs":[]},{"type":"error","name":"EnforcedPause","inputs":[]},{"type":"error","name":"ExpectedPause","inputs":[]},{"type":"error","name":"InsufficientBoneBalance","inputs":[]},{"type":"error","name":"InsufficientETHAmount","inputs":[]},{"type":"error","name":"InsufficientLinkFunds","inputs":[]},{"type":"error","name":"InvalidRouter","inputs":[{"name":"router","type":"address","internalType":"address"}]},{"type":"error","name":"InvalidZeroAddress","inputs":[]},{"type":"error","name":"MaxPlayersReached","inputs":[]},{"type":"error","name":"NoNFTOwnership","inputs":[]},{"type":"error","name":"NoWithdrawalAvailable","inputs":[]},{"type":"error","name":"OnlyVRFWrapperCanFulfill","inputs":[{"name":"have","type":"address","internalType":"address"},{"name":"want","type":"address","internalType":"address"}]},{"type":"error","name":"PrizesAlreadyDistributed","inputs":[]},{"type":"error","name":"PrizesNotDistributed","inputs":[]},{"type":"error","name":"ReentrancyGuardReentrantCall","inputs":[]},{"type":"error","name":"RoundAlreadyCompleted","inputs":[]},{"type":"error","name":"RoundNotActive","inputs":[]},{"type":"error","name":"RoundNotCompleted","inputs":[]},{"type":"error","name":"SlippageExceeded","inputs":[]},{"type":"error","name":"SwapFailed","inputs":[]},{"type":"error","name":"WinnersAlreadySelected","inputs":[]},{"type":"error","name":"WinnersNotSelected","inputs":[]},{"type":"error","name":"WithdrawalFailed","inputs":[]}],"bytecode":{"object":"0x6101a0806040523461051457614a2a803803809161001d8285610572565b83398101818103916101e083126105145761003781610595565b6020820151939092906001600160401b03851685036105145761005c60408401610595565b9161006960608501610595565b9161007660808601610595565b8260bf87011215610514576040519161008e83610543565b8261014088019485116105145760a08801905b85821061052b57505060a09061013f190112610514576100cc604051936100c785610543565b610595565b83526100db6101608701610595565b93602084019485526101808701519562ffffff8716870361051457604085019687526101a0880151978860020b890361051457606086019889526101c00151986001600160a01b038a168a036105145760808601998a52604051630711a57d60e21b815260208160048173195f15f2d49d693ce265b4fb0fddbe15b1850cc15afa908115610520575f916104e2575b506001600160a01b0390811660805273195f15f2d49d693ce265b4fb0fddbe15b1850cc160a0528116156104cf5760c05260015f5560068054600160801b600160d01b03191665180018003d0960851b1790556103e86007556001600160a01b0316801580156104be575b80156104ad575b61049e57600580546001600160a01b0319166001600160a01b0385169081179091556040519a905f7f7e644d79422f17c01e4894b5f4f588d331ebfa28653d42ae832dc59e38c9798f8180a361018052610120526001600160a01b031661014052610160525f5b6005811061048057505073e03a1074c86cfedd5c142c4f04f1a1536e20354360e0526e22d473030f116ddee9f6b43ac78ba36101005251600280546001600160a01b03199081166001600160a01b0393841617909155915160038054945195516001600160d01b03199095169183169190911760a09590951b62ffffff60a01b169490941762ffffff60b81b60b89490941b93909316929092179092559151600480549092169216919091179055600680546001600160801b03191660019081179091555f81815260106020527f8c6065603763fec3f5742441d3833f3f43b982453612d76adb39a885e3006b638054600160801b600160c81b0319164260801b600160801b600160c01b031617600160c01b1790557fae4cf40c31a833f14b2aee71da8cb55d5fd1944a9ed5b7696022328921f6e3179080a261448090816105aa82396080518181816106ef015281816116ef01528181611e480152818161255a01528181612c4c0152613fca015260a051818181610c460152818161169f01528181611ebd0152818161250a01528181612d810152613f7a015260c051818181610c0201526110ee015260e0518181816107b80152610af001526101005181612e4801526101205181818161080101528181611387015281816121fb0152613ce90152610140518181816109ae01528181610d5b0152818161224e01528181612ac1015281816132ed0152613871015261016051818181612b620152613991015261018051818181611475015281816123270152612a1e0152f35b81516001600160a01b03166008820155602090910190600101610243565b63f6b2911f60e01b5f5260045ffd5b506001600160a01b038316156101dc565b506001600160a01b038216156101d5565b6335fdcccd60e21b5f525f60045260245ffd5b90506020813d602011610518575b816104fd60209383610572565b810103126105145761050e90610595565b5f61016a565b5f80fd5b3d91506104f0565b6040513d5f823e3d90fd5b6020809161053884610595565b8152019101906100a1565b60a081019081106001600160401b0382111761055e57604052565b634e487b7160e01b5f52604160045260245ffd5b601f909101601f19168101906001600160401b0382119082101761055e57604052565b51906001600160a01b03821682036105145756fe608080604052600436101561001c575b50361561001a575f80fd5b005b5f3560e01c90816301ffc9a714612ef8575080630286998514612ec7578063029dd6ba146107e75780630c154afe14612eac57806310b7893914612e9257806312065fe014612e7757806312261ee714612e335780631a1d925214612de55780631fe543e314612d11578063247cf05d14612c0857806324f7469714612be2578063285f664814612b915780633ad10ef614612b4d5780633ccfd60b14612a425780633d54cb6f146129ff578063439766ce1461299a5780634411b3eb1461297f5780634d7614b11461219a5780634e6fd6c41461217e578063520319751461213d5780635c975abb1461211b57806362308e85146120ed578063625b81861461208c5780636afdd850146120635780636ca3fc3b146120115780636e9960c314611c8a57806371b859d614611fb557806374ed628a14611f935780637615aeb914611e1d5780637649002a14611e0257806377583b4e14611cb25780637795524514611c8a5780637b450dba14611bf05780637ccfd7fc14611bca57806384182daf1461132b578063845360171461127557806385572ffb146110bc57806388c3ffb014610fd05780638984d76914610f9a5780638c04166f14610f7d5780638f28397014610ec0578063917bb99814610d1a57806393b998fb146107e75780639b211fc414610cdc5780639bf3f80214610c9b5780639cbe5efd14610c755780639ed0868d14610c31578063b0f479a114610bed578063b0fb162f14610bc9578063b2110fb814610b88578063b235af0e14610b5a578063b2db17d314610acc578063b33712c514610a59578063b7285ccb146109dd578063b7753a5614610999578063bb7e0bef14610959578063bf2e5ae0146108f2578063c1609e92146108d0578063ca55704e14610830578063d56d229d146107ec578063d968f51b146107e7578063dc4c90d3146107a3578063ddd3c6241461071e578063e76d5168146106da578063e9d97422146105b0578063eafa02b414610572578063ed0b481414610535578063ed7669841461034b5763f683cbcd1461031f575f61000f565b3461034757602036600319011261034757602061033a6133eb565b6004351015604051908152f35b5f80fd5b34610347576040366003190112610347576103646130ba565b61036c613050565b9061038260018060a01b036005541633146130d0565b6001600160401b0381165f818152600f6020908152604080832080546001600160a01b03979097166001600160a01b031990971687179055600e9091529020805460ff19169315801560ff1694909417905591610477575f5f92600d54935b848110610444575b5050156103f257005b600160401b8210156104305761041182600161001a9401600d55613066565b9091906001600160401b038084549260031b9316831b921b1916179055565b634e487b7160e01b5f52604160045260245ffd5b816001600160401b0361045683613066565b90549060031b1c161461046b576001016103e1565b505050600183806103e9565b505f5b600d548082101561001a57826001600160401b0361049784613066565b90549060031b1c16146104ad575060010161047a565b5f19810192508211610521576104116001600160401b036104d06104de94613066565b90549060031b1c1691613066565b600d54801561050d575f19016104f381613066565b6001600160401b0382549160031b1b19169055600d555f80f35b634e487b7160e01b5f52603160045260245ffd5b634e487b7160e01b5f52601160045260245ffd5b34610347576020366003190112610347576001600160401b036105566130ba565b165f52600e602052602060ff60405f2054166040519015158152f35b34610347576020366003190112610347576001600160a01b0361059361303a565b165f526014602052602063ffffffff60405f205416604051908152f35b34610347575f366003190112610347576001600160801b03600654165f52601060205260405f208054906105e382612fd8565b916105f16040519384612fb7565b8083526020830180925f5260205f205f915b838310610683578486604051918291602083019060208452518091526040830191905f5b818110610635575050500390f35b919350916020608060019260608751858060a01b0381511683526001600160401b03858201511685840152604081015115156040840152015115156060820152019401910191849392610627565b60016020819260405161069581612f81565b60ff8654858060a01b03811683526001600160401b038160a01c1685840152818160e01c161515604084015260e81c1615156060820152815201920192019190610603565b34610347575f366003190112610347576040517f00000000000000000000000000000000000000000000000000000000000000006001600160a01b03168152602090f35b346103475760203660031901126103475760043561073a613719565b805f526010602052600460405f200180549060ff8260c81c16156107945760ff809260d01c1615610786575b5460d81c1615610777575b60015f55005b61078090613752565b80610771565b61078f83613915565b610766565b6330d747f960e21b5f5260045ffd5b34610347575f366003190112610347576040517f00000000000000000000000000000000000000000000000000000000000000006001600160a01b03168152602090f35b612f4b565b34610347575f366003190112610347576040517f00000000000000000000000000000000000000000000000000000000000000006001600160a01b03168152602090f35b346103475760203660031901126103475760043561085960018060a01b036005541633146130d0565b6107d08111610893576020817f518d0437a3cb95050a625882f63cf82896bac92d38686e59aacfff08868217cf92600755604051908152a1005b60405162461bcd60e51b815260206004820152601560248201527409ac2f040e6d8d2e0e0c2ceca40e8dede40d0d2ced605b1b6044820152606490fd5b34610347575f366003190112610347576020604051670de0b6b3a76400008152f35b346103475760203660031901126103475760043561090e6132b6565b670de0b6b3a7640000820291808304670de0b6b3a7640000149015171561052157610938916132ac565b606e810290808204606e149015171561052157606460209104604051908152f35b34610347576020366003190112610347576001600160401b0361097a6130ba565b165f52600f602052602060018060a01b0360405f205416604051908152f35b34610347575f366003190112610347576040517f00000000000000000000000000000000000000000000000000000000000000006001600160a01b03168152602090f35b34610347576020366003190112610347576004355f52601060205260c0600460405f20015460ff604051916001600160801b03811683526001600160401b038160801c1660208401528181851c1615156040840152818160c81c1615156060840152818160d01c161515608084015260d81c16151560a0820152f35b34610347575f36600319011261034757610a7e60018060a01b036005541633146130d0565b60015460ff811615610abd5760ff19166001557f5db9ee0a495bf2e6ff9c91a7834c1ba4fdd244a5e8aa4e537bd38aeae4b073aa6020604051338152a1005b638dfc202b60e01b5f5260045ffd5b34610347575f3660031901126103475760805f80610b1460a0610aed613248565b207f0000000000000000000000000000000000000000000000000000000000000000613bc1565b5050506001600160a01b0316918215159182610b42575b604051938452602084015260408301526060820152f35b5050610b4c6132b6565b610b546133eb565b90610b2b565b34610347575f36600319011261034757602060405173fff9976782d46cc05630d1f6ebab18b2324d6b148152f35b34610347576020366003190112610347576001600160a01b03610ba961303a565b165f52601360205260206001600160801b0360405f205416604051908152f35b34610347575f36600319011261034757602061ffff60065460a01c16604051908152f35b34610347575f366003190112610347576040517f00000000000000000000000000000000000000000000000000000000000000006001600160a01b03168152602090f35b34610347575f366003190112610347576040517f00000000000000000000000000000000000000000000000000000000000000006001600160a01b03168152602090f35b34610347575f3660031901126103475760206001600160801b0360065416604051908152f35b3461034757602036600319011261034757600435600d54811015610347576001600160401b03610ccc602092613066565b90549060031b1c16604051908152f35b34610347576020366003190112610347576001600160a01b03610cfd61303a565b165f526015602052602063ffffffff60405f205416604051908152f35b3461034757604036600319011261034757610d3361303a565b6005546001600160a01b0316602435610d4d3383146130d0565b6001600160a01b03928316927f00000000000000000000000000000000000000000000000000000000000000001683811480159190610e51575b5015610dfe5760405163a9059cbb60e01b81526001600160a01b03929092166004830152602482015290602090829060449082905f905af18015610df357610dcb57005b61001a9060203d602011610dec575b610de48183612fb7565b810190613230565b503d610dda565b6040513d5f823e3d90fd5b60405162461bcd60e51b815260206004820152602560248201527f43616e6e6f74207769746864726177206d6f7265207468616e20313025206f6660448201526420424f4e4560d81b6064820152608490fd5b6040516370a0823160e01b81523060048201529150602090829060249082905afa8015610df3575f90610e8d575b600a91500481111584610d87565b506020813d602011610eb8575b81610ea760209383612fb7565b8101031261034757600a9051610e7f565b3d9150610e9a565b3461034757602036600319011261034757610ed961303a565b6005546001600160a01b03811691610ef23384146130d0565b6001600160a01b0316918215610f385782907f7e644d79422f17c01e4894b5f4f588d331ebfa28653d42ae832dc59e38c9798f5f80a36001600160a01b03191617600555005b60405162461bcd60e51b815260206004820152601d60248201527f4e65772061646d696e20697320746865207a65726f20616464726573730000006044820152606490fd5b34610347575f366003190112610347576020600754604051908152f35b3461034757602036600319011261034757600435600581101561034757600801546040516001600160a01b039091168152602090f35b3461034757602036600319011261034757606080604051610ff18282612fb7565b3690376004355f52601060205260405f2090600182549161101d600485015494604051938491016133ba565b6110278183612fb7565b60405192835260ff8460c01c161515602084015260ff8460c81c161515604084015260ff8460d01c1615159083015260ff8360d81c161515608083015260a082015f905b6003821061109c57610140846001600160401b03876001600160801b03811661010084015260801c16610120820152f35b82516001600160a01b03168152602092830192600192909201910161106b565b34610347576020366003190112610347576004356001600160401b0381116103475760a06003198236030112610347577f00000000000000000000000000000000000000000000000000000000000000006001600160a01b03163303611262576040519061112982612f66565b8060040135825260248101356001600160401b038116810361034757602083015260448101356001600160401b0381116103475761116d9060043691840101613374565b604083015260648101356001600160401b038111610347576111959060043691840101613374565b60608301526084810135906001600160401b03821161034757019036602383011215610347576004820135916111ca83612fd8565b906111d86040519283612fb7565b838252602060048184019560061b830101019036821161034757602401935b81851061120d5761001a84846080820152613c7a565b6040853603126103475760405190604082018281106001600160401b03821117610430576040528535906001600160a01b038216820361034757826020926040945282880135838201528152019401936111f7565b6335fdcccd60e21b5f523360045260245ffd5b34610347575f366003190112610347576005546001600160a01b031661129c3382146130d0565b5f8080804780955af16112ad613345565b50156112ee576005546040519182526001600160a01b0316907f94b2de810873337ed265c5f8cf98c9cffefa06b8607f9a2f1fbaebdfbcfbef1c90602090a2005b60405162461bcd60e51b8152602060048201526015602482015274115512081dda5d1a191c985dd85b0819985a5b1959605a1b6044820152606490fd5b5f3660031901126103475761133e613719565b611346613737565b6001600160801b03600654165f52601060205260ff600460405f20015460c01c1615611bbb576040516370a0823160e01b81523360048201526020816024817f00000000000000000000000000000000000000000000000000000000000000006001600160a01b03165afa908115610df3575f91611b89575b5015611b7a573415611b6b576113d36133eb565b3410611b6b576113e16132b6565b8015611b57576ec097ce7bc90715b34b9f1000000000046069810290808204606914901517156105215760649004348111611b48578034039034821161052157803403611afa575b6001600160801b03600654165f52601060205260405f20918254926004841015611aeb575f5b848110611ab957506040519061146482612f81565b338252602082016001600160401b037f00000000000000000000000000000000000000000000000000000000000000001695868252604084019060018252606085019060018252600160401b811015610430578060016114c7920186558561342e565b939093611aa657945183549551925191516001600160f01b03199096166001600160a01b03919091161760a09290921b67ffffffffffffffff60a01b169190911790151560e01b60ff60e01b161792151560e81b60ff60e81b1692909217909155600481810180546001600160801b03198082166001600160801b03928316670de0b6b3a76400009081018416919091179093555f888152600580870160209081526040808420805463ffffffff1980821663ffffffff928316600190810184169190911790935560068c0185528387208054988916988a16909a019098169690961790975533845260148252808420805480881690871690980186169790971790965560159052939020805492831692821690930116179055905414611661575b6040519134835260208301526040820152670de0b6b3a764000060608201527f7af4878abf6b21b42906a1c69c3cc7c1da4e687d8cd948e1b8755a5251297cfd60803392a2604051600181527fa67d03666a3149f7a9b8af8d3c3e51310454dee74e967409260559f680195f1060203392a360015f55005b6006546040516313f2e28560e11b815263ffffffff608083901c81166004830181905260b084901c9091166024830181905290926001600160a01b037f000000000000000000000000000000000000000000000000000000000000000016929091602082604481875afa918215610df3575f92611a72575b506040516370a0823160e01b81523060048201527f00000000000000000000000000000000000000000000000000000000000000006001600160a01b03169290602081602481875afa908115610df3575f91611a40575b5010611a315760405161174281612f9c565b5f81526040519063125fa26760e31b602083015251151560248201526024815261176d604482612fb7565b6040516313f2e28560e11b815263ffffffff87811660048301528316602482015291602083604481895afa928315610df3575f936119f3575b50611821966117e36020969594936117f19361ffff6040519889958b87015260a01c166040850152606084015260808084015260a0830190614426565b03601f198101855284612fb7565b5f604051809781958294630200057560e51b84528960048501526024840152606060448401526064830190614426565b03925af1908115610df3576004926020926119d8575b5060405163fc2a88c360e01b815292839182905afa908115610df3575f916119a6575b50602060405161186a8282612fb7565b5f81525f36813760016001600160801b03600654166040519061188c82612f81565b81525f848201818152604080840185815260608501968752888452601188529220925183549151925192151560801b60ff60801b166001600160801b039091166001600160901b0319909216919091171790151560881b60ff60881b161781559151805192909101906001600160401b03831161043057600160401b8311610430578390825484845580851061197e575b5001905f52825f205f5b83811061196c57505050507fc6f253de430148d7581a940518a73a6d98efc85ea9162887a3918443ba67c212906001600160801b0360065416604051908152a26115e9565b82518282015591840191600101611927565b835f5284835f2091820191015b818110611998575061191d565b5f815586935060010161198b565b90506020813d6020116119d0575b816119c160209383612fb7565b8101031261034757518461185a565b3d91506119b4565b6119ee90833d8511610dec57610de48183612fb7565b611837565b94939250906020853d602011611a29575b81611a1160209383612fb7565b810103126103475793519293919291906118216117a6565b3d9150611a04565b6328c9eaa960e11b5f5260045ffd5b90506020813d602011611a6a575b81611a5b60209383612fb7565b8101031261034757518a611730565b3d9150611a4e565b9091506020813d602011611a9e575b81611a8e60209383612fb7565b81010312610347575190886116d9565b3d9150611a81565b634e487b7160e01b5f525f60045260245ffd5b611ac3818361342e565b50546001600160a01b03163314611adc5760010161144f565b630d5f433160e21b5f5260045ffd5b6394d0eef960e01b5f5260045ffd5b5f80808085335af1611b0a613345565b506114295760405162461bcd60e51b8152602060048201526011602482015270115512081c99599d5b990819985a5b1959607a1b6044820152606490fd5b638199f5f360e01b5f5260045ffd5b634e487b7160e01b5f52601260045260245ffd5b633b38932f60e11b5f5260045ffd5b63d2feecb160e01b5f5260045ffd5b90506020813d602011611bb3575b81611ba460209383612fb7565b810103126103475751816113bf565b3d9150611b97565b633df07da560e01b5f5260045ffd5b34610347575f36600319011261034757602063ffffffff60065460b01c16604051908152f35b346103475760603660031901126103475760043563ffffffff811681036103475760243561ffff811681036103475760443563ffffffff8116810361034757611c4460018060a01b036005541633146130d0565b6006549063ffffffff60b01b9060b01b169263ffffffff60801b9060801b169069ffffffffffffffffffff60801b1916179061ffff60a01b9060a01b1617176006555f80f35b34610347575f366003190112610347576005546040516001600160a01b039091168152602090f35b346103475760a036600319011261034757604051611ccf81612f66565b611cd761303a565b8152611ce1613050565b602082019081526044359162ffffff8316830361034757604081019283526064358060020b81036103475760608201908152608435906001600160a01b0382168203610347577f296ba97753bd1260f11251341a34258bb5f591efe59b6bca30da786c7362bf0b94611dfd9460808501938452611d6960018060a01b036005541633146130d0565b60018060a01b038551166001600160601b0360a01b600254161760025560018060a01b039051166001600160601b0360a01b60035416176003555190600354905160b81b62ffffff60b81b169162ffffff60a01b9060a01b169065ffffffffffff60a01b1916171760035560018060a01b039051166001600160601b0360a01b600454161760045560405191829182612fef565b0390a1005b34610347575f366003190112610347576020604051601e8152f35b34610347575f366003190112610347576040516370a0823160e01b81523060048201526020816024817f00000000000000000000000000000000000000000000000000000000000000006001600160a01b03165afa8015610df3575f90611f5f575b6006546040516313f2e28560e11b815263ffffffff608083901c8116600483015260b09290921c9091166024820152915060208280604481015b03817f00000000000000000000000000000000000000000000000000000000000000006001600160a01b03165afa8015610df3575f90611f2c575b608092508015611f2557611f0881836132ac565b915b60405192818452826020850152604084015210156060820152f35b5f91611f0a565b506020823d602011611f57575b81611f4660209383612fb7565b810103126103475760809151611ef4565b3d9150611f39565b506020813d602011611f8b575b81611f7960209383612fb7565b8101031261034757611eb99051611e7f565b3d9150611f6c565b34610347575f366003190112610347576020611fad6132b6565b604051908152f35b34610347575f3660031901126103475760028054600354600454604080516001600160a01b039485168152838516602082015260a084811c62ffffff169282019290925260b89390931c90940b60608301529091166080820152f35b3461034757602036600319011261034757600435805f526010602052600460405f20015460ff8160c81c16156107945760d01c60ff166120545761001a90613915565b632021492d60e01b5f5260045ffd5b34610347575f3660031901126103475760206040516e22d473030f116ddee9f6b43ac78ba38152f35b3461034757602036600319011261034757600435805f526010602052600460405f20015460ff8160d01c16156120de5760d81c60ff166120cf5761001a90613752565b633e3a941b60e11b5f5260045ffd5b6399457c9560e01b5f5260045ffd5b34610347575f36600319011261034757602060405173e03a1074c86cfedd5c142c4f04f1a1536e2035438152f35b34610347575f36600319011261034757602060ff600154166040519015158152f35b34610347576020366003190112610347576001600160a01b0361215e61303a565b165f52601260205260206001600160801b0360405f205416604051908152f35b34610347575f36600319011261034757602060405161dead8152f35b34610347575f366003190112610347576121b2613719565b6121ba613737565b6001600160801b03600654165f52601060205260ff600460405f20015460c01c1615611bbb576040516370a0823160e01b81523360048201526020816024817f00000000000000000000000000000000000000000000000000000000000000006001600160a01b03165afa908115610df3575f9161294d575b5015611b7a576040516370a0823160e01b81523360048201527f00000000000000000000000000000000000000000000000000000000000000006001600160a01b031690602081602481855afa8015610df3575f90612913575b670de0b6b3a76400009150106129045760205f916064604051809481936323b872dd60e01b8352336004840152306024840152670de0b6b3a764000060448401525af18015610df3576128e7575b506001600160801b03600654165f52601060205260405f208054906004821015611aeb575f5b8281106128c457506040519061231682612f81565b338252602082016001600160401b037f0000000000000000000000000000000000000000000000000000000000000000169384825260408401906001825260608501905f8252600160401b81101561043057806001612378920186558561342e565b939093611aa657945183549551925191516001600160f01b03199096166001600160a01b03919091161760a09290921b67ffffffffffffffff60a01b169190911790151560e01b60ff60e01b161792151560e81b60ff60e81b1692909217909155600481810180546001600160801b03198082166001600160801b03928316670de0b6b3a76400009081018416919091179093555f868152600580870160209081526040808420805463ffffffff1980821663ffffffff928316600190810184169190911790935560068c0185528387208054988916988a16909a0190981696909617909755338452601482528084208054808816908716909801861697909717909655601590529390208054928316928216909301161790559054146124cc575b6040515f81527fa67d03666a3149f7a9b8af8d3c3e51310454dee74e967409260559f680195f1060203392a360015f55005b6006546040516313f2e28560e11b815263ffffffff608083901c81166004830181905260b084901c9091166024830181905290926001600160a01b037f000000000000000000000000000000000000000000000000000000000000000016929091602082604481875afa918215610df3575f92612890575b506040516370a0823160e01b81523060048201527f00000000000000000000000000000000000000000000000000000000000000006001600160a01b03169290602081602481875afa908115610df3575f9161285e575b5010611a31576040516125ad81612f9c565b5f81526040519063125fa26760e31b60208301525115156024820152602481526125d8604482612fb7565b6040516313f2e28560e11b815263ffffffff87811660048301528316602482015291602083604481895afa928315610df3575f93612820575b5061264e966117e36020969594936117f19361ffff6040519889958b87015260a01c166040850152606084015260808084015260a0830190614426565b03925af1908115610df357600492602092612805575b5060405163fc2a88c360e01b815292839182905afa908115610df3575f916127d3575b5060206040516126978282612fb7565b5f81525f36813760016001600160801b0360065416604051906126b982612f81565b81525f848201818152604080840185815260608501968752888452601188529220925183549151925192151560801b60ff60801b166001600160801b039091166001600160901b0319909216919091171790151560881b60ff60881b161781559151805192909101906001600160401b03831161043057600160401b831161043057839082548484558085106127ab575b5001905f52825f205f5b83811061279957505050507fc6f253de430148d7581a940518a73a6d98efc85ea9162887a3918443ba67c212906001600160801b0360065416604051908152a261249a565b82518282015591840191600101612754565b835f5284835f2091820191015b8181106127c5575061274a565b5f81558693506001016127b8565b90506020813d6020116127fd575b816127ee60209383612fb7565b81010312610347575182612687565b3d91506127e1565b61281b90833d8511610dec57610de48183612fb7565b612664565b94939250906020853d602011612856575b8161283e60209383612fb7565b8101031261034757935192939192919061264e612611565b3d9150612831565b90506020813d602011612888575b8161287960209383612fb7565b8101031261034757518861259b565b3d915061286c565b9091506020813d6020116128bc575b816128ac60209383612fb7565b8101031261034757519086612544565b3d915061289f565b6128ce818361342e565b50546001600160a01b03163314611adc57600101612301565b6128ff9060203d602011610dec57610de48183612fb7565b6122db565b63df5891e760e01b5f5260045ffd5b506020813d602011612945575b8161292d60209383612fb7565b8101031261034757670de0b6b3a7640000905161228d565b3d9150612920565b90506020813d602011612977575b8161296860209383612fb7565b81010312610347575181612233565b3d915061295b565b34610347575f36600319011261034757602060405160048152f35b34610347575f366003190112610347576129bf60018060a01b036005541633146130d0565b6129c7613737565b600160ff19815416176001557f62e78cea01bee320cd4e420270b5ea74000d11b0c9f74754ebdbfc544b05a2586020604051338152a1005b34610347575f3660031901126103475760206040516001600160401b037f0000000000000000000000000000000000000000000000000000000000000000168152f35b34610347575f36600319011261034757612a5a613719565b335f5260126020526001600160801b0360405f2054168015612b3e57335f81815260126020908152604080832080546001600160801b03191690555163a9059cbb60e01b815260048101939093526024830184905290829060449082906001600160a01b037f0000000000000000000000000000000000000000000000000000000000000000165af18015610df357612b21575b506040519081527fbc158bb64f05d6383aea69bbb0b20c1bbf4b7a18f63359c5649b7c39e29d388460203392a260015f55005b612b399060203d602011610dec57610de48183612fb7565b612aee565b632632599760e01b5f5260045ffd5b34610347575f366003190112610347576040517f00000000000000000000000000000000000000000000000000000000000000006001600160a01b03168152602090f35b34610347575f366003190112610347575f6080604051612bb081612f66565b8281528260208201528260408201528260608201520152612bde612bd2613248565b60405191829182612fef565b0390f35b34610347575f36600319011261034757602063ffffffff60065460801c16604051908152f35b34610347576020366003190112610347576004358015612ccc576040516323b872dd60e01b815233600482015230602482015260448101829052906020826064815f7f00000000000000000000000000000000000000000000000000000000000000006001600160a01b03165af1908115610df3577f7cb59c1431f46a1b75ec70de765804512f5adaf738535f26051be9dc9dfd646092602092612cb1575b50604051908152a1005b612cc790833d8511610dec57610de48183612fb7565b612ca7565b60405162461bcd60e51b815260206004820152601a60248201527f4d7573742073656e64204c494e4b20746f2066756e64205652460000000000006044820152606490fd5b34610347576040366003190112610347576024356001600160401b038111610347573660238201121561034757806004013590612d4d82612fd8565b91612d5b6040519384612fb7565b8083526024602084019160051b8301019136831161034757602401905b828210612dd5577f00000000000000000000000000000000000000000000000000000000000000006001600160a01b03168433829003612dbe5761001a90600435613608565b506345d498b760e11b5f523360045260245260445ffd5b8135815260209182019101612d78565b34610347576020366003190112610347576004355f526011602052606060405f205460ff604051916001600160801b0381168352818160801c161515602084015260881c1615156040820152f35b34610347575f366003190112610347576040517f00000000000000000000000000000000000000000000000000000000000000006001600160a01b03168152602090f35b34610347575f36600319011261034757602047604051908152f35b34610347575f366003190112610347576020611fad6133eb565b34610347575f366003190112610347576020604051603c8152f35b3461034757602036600319011261034757612eed60018060a01b036005541633146130d0565b61001a600435613130565b34610347576020366003190112610347576004359063ffffffff60e01b8216809203610347576020916385572ffb60e01b8114908115612f3a575b5015158152f35b6301ffc9a760e01b14905083612f33565b34610347575f36600319011261034757602060405160058152f35b60a081019081106001600160401b0382111761043057604052565b608081019081106001600160401b0382111761043057604052565b602081019081106001600160401b0382111761043057604052565b90601f801991011681019081106001600160401b0382111761043057604052565b6001600160401b0381116104305760051b60200190565b81516001600160a01b03908116825260208084015182169083015260408084015162ffffff169083015260608084015160020b90830152608092830151169181019190915260a00190565b600435906001600160a01b038216820361034757565b602435906001600160a01b038216820361034757565b90600d548210156130a657600d5f52600282901c7fd7b6990105719101dabeb77144f2a3385c8033acd3af97e9423a695e81ad1eb5019160031b60181690565b634e487b7160e01b5f52603260045260245ffd5b600435906001600160401b038216820361034757565b156130d757565b60405162461bcd60e51b815260206004820152601760248201527f43616c6c6572206973206e6f74207468652061646d696e0000000000000000006044820152606490fd5b80518210156130a65760209160051b010190565b805f52601060205260405f2060ff600482015460c81c16908115613226575b50613223575f1943014381116105215760405160208101914283524460408301524060608201528260808201526080815261318b60a082612fb7565b5190206040519061319d608083612fb7565b600382526020820160603682378251156130a65781905260408051602081018381526001828401529181526131d3606082612fb7565b5190208251600110156130a6576040830152604051602081019182526002604082015260408152613205606082612fb7565b519020918151600210156130a657613221926060830152613452565b565b50565b905054155f61314f565b90816020910312610347575180151581036103475790565b6040519061325582612f66565b600280546001600160a01b039081168452600354808216602086015260a081901c62ffffff16604086015260b81c90910b6060840152600454166080830152565b9060058202918083046005149015171561052157565b8115611b57570490565b6132c360a0610aed613248565b5050506001600160a01b031680800290808204811490151715610521576002546001600160a01b037f00000000000000000000000000000000000000000000000000000000000000008116911603613324578015611b5757600160c01b0490565b60c01c90565b6001600160401b03811161043057601f01601f191660200190565b3d1561336f573d906133568261332a565b916133646040519384612fb7565b82523d5f602084013e565b606090565b81601f820112156103475780359061338b8261332a565b926133996040519485612fb7565b8284526020838301011161034757815f926020809301838601378301015290565b905f905b600382106133cb57505050565b82546001600160a01b0316815260019283019291909101906020016133be565b6133f36132b6565b8015611b57576ec097ce7bc90715b34b9f100000000004606e810290808204606e1490151715610521576064900490565b8115611b57570690565b80548210156130a6575f5260205f2001905f90565b60038210156130a65701905f90565b90815f52601060205260405f2090600482019060ff825460c81c1661360257825480156135fb57600381106135f457600391905b61348f81612fd8565b9261349d6040519485612fb7565b818452601f196134ac83612fd8565b013660208601375f905b808210613516575050835461ffff60c01b1916600160c81b1790935550506040517f0d7cb62ee6b779150e79c781e938a5c77e07c9357d884aa5ae0e401881c36b4f936080939192509061350e9083906001016133ba565b6060820152a1565b9296909461353d836135376135318b9c969a989c518a613424565b8b61311c565b51613424565b935f945b61354b818c61311c565b511515806135eb575b156135805760018101809111610521578861356e91613424565b945f1981146105215760010194613541565b886001939892959b9799969a949a106135a0575b500191929190926134b6565b80836135af6135b6938a61311c565b528961342e565b50828060a01b039054166135cc82848b01613443565b819291549060031b91821b91858060a01b03901b19161790555f613594565b50888610613554565b9081613486565b5050505050565b50505050565b90815f52601160205260405f2090815460ff8160881c16156136025760ff60801b1916600160801b1782558051600183016001600160401b03821161043057600160401b82116104305780548282558083106136f3575b5060208301905f5260205f205f5b8381106136df57505050506001600160801b0382541690815f52601060205260ff600460405f20015460c81c16613602577f41c9b09716a74f8a100ce1159febf82ab674e27ff67c16f4fed74d6fc1c62869926136d46001600160801b0392602094613452565b5416604051908152a2565b60019060208451940193818401550161366d565b815f528260205f2091820191015b81811061370e575061365f565b5f8155600101613701565b60025f54146137285760025f55565b633ee5aeb560e01b5f5260045ffd5b60ff6001541661374357565b63d93c066560e01b5f5260045ffd5b5f818152601060205260409020600401805460ff60d81b198116600160d81b1790915560649061378a906001600160801b0316613296565b048061384b575b506006546001600160801b036001818316011680916001600160801b031916176006555f526010602052600460405f20018054600160c01b906001600160401b0360801b4260801b169068ffffffffffffffffff60801b1916171790556001600160801b0360065416907f867bc48474afbd71c32542f493801861b7fa916f53f0e706e1bb8a3f47709c286020604051848152a27fae4cf40c31a833f14b2aee71da8cb55d5fd1944a9ed5b7696022328921f6e3175f80a2565b60405163a9059cbb60e01b815261dead600482015260248101829052906020826044815f7f00000000000000000000000000000000000000000000000000000000000000006001600160a01b03165af1908115610df3577f6ef4855b666dcc7884561072e4358b28dfe01feb1b7f4dcebc00e62d50394ac7926020926138da575b50604051908152a15f613791565b6138f090833d8511610dec57610de48183612fb7565b6138cc565b906001600160801b03809116911601906001600160801b03821161052157565b805f52601060205260405f209060048201906001600160801b03825416801561360257603c810293818504603c0361052157606461395283613296565b0490601e830295838704601e03610521579495946003606490910404906001015f5b60038110613af6575050506001600160801b031660018060a01b037f000000000000000000000000000000000000000000000000000000000000000016805f52601260205260405f206001600160801b036139d284828454166138f5565b166001600160801b03198254161790555f5260136020526001600160801b03613a0260405f2092828454166138f5565b166001600160801b03198254161790556001600160801b03600560645f95040416925b6005811015613aad5760019080600801828060a01b038154165f52601260205260405f206001600160801b03613a5e88828454166138f5565b166001600160801b0319825416179055828060a01b039054165f52601360205260405f206001600160801b03613a9787828454166138f5565b166001600160801b031982541617905501613a25565b50835460ff60d01b1916600160d01b179093556040805191825260208201939093527f329f5cd0d1a0c708183708da49f688d169bfd6e9203310c8d56d4d26c144fafe929150a1565b80613b06600192849a999a613443565b838060a01b0391549060031b1c16613b22575b01969596613974565b6001600160801b038416613b368285613443565b848060a01b0391549060031b1c165f52601260205260405f206001600160801b03613b6483828454166138f5565b166001600160801b0319825416179055613b7e8285613443565b848060a01b0391549060031b1c165f5260136020526001600160801b03613bac60405f2092828454166138f5565b166001600160801b0319825416179055613b19565b91906020906040518281019182526006604082015260408152613be5606082612fb7565b519020604051631e2eaeaf60e01b8152600481019190915292839060249082906001600160a01b03165afa918215610df3575f92613c46575b506001600160a01b0382169160a081901c60020b9162ffffff60b883901c81169260d01c1690565b9091506020813d602011613c72575b81613c6260209383612fb7565b810103126103475751905f613c1e565b3d9150613c55565b6001600160401b0360208201511690815f52600e60205260ff60405f205416156144175760600151906040828051810103126103475760208201516001600160a01b03811692908390036103475760409081015190516370a0823160e01b8152600481018490526020816024817f00000000000000000000000000000000000000000000000000000000000000006001600160a01b03165afa908115610df3575f916143e5575b50156143b757670de0b6b3a7640000036143b3576001600160801b03600654165f52601060205260405f2060ff600482015460c01c161580156143a7575b6143a2578054905f5b82811061437f575050506001600160801b03600654165f52601060205260405f208054906004821015611aeb575f5b82811061435c575060405191613dac83612f81565b848352602083019084825260408401905f825260608501905f8252600160401b81101561043057806001613de3920186558561342e565b939093611aa657945183549551925191516001600160f01b03199096166001600160a01b03919091161760a09290921b67ffffffffffffffff60a01b169190911790151560e01b60ff60e01b161792151560e81b60ff60e81b1692909217909155600481810180546001600160801b03198082166001600160801b03928316670de0b6b3a76400009081018416919091179093556001600160401b0386165f908152600580870160209081526040808420805463ffffffff1980821663ffffffff928316600190810184169190911790935560068c0185528387208054988916988a16909a01909816969096179097558a845260148252808420805480881690871690980186169790971790965560159052939020805492831692821690930116179055905414613f3c575b60207f2b9e41ab9949392f3d5b732fc3ad6794d6e7bff5dc7da34f7bbcd02a2cb52b4d91604051908152a2565b6006546040516313f2e28560e11b815263ffffffff608083901c81166004830181905260b084901c9091166024830181905290926001600160a01b037f000000000000000000000000000000000000000000000000000000000000000016929091602082604481875afa918215610df3575f92614328575b506040516370a0823160e01b81523060048201527f00000000000000000000000000000000000000000000000000000000000000006001600160a01b03169290602081602481875afa908115610df3575f916142f6575b5010611a315760405161401d81612f9c565b5f81526040519063125fa26760e31b6020830152511515602482015260248152614048604482612fb7565b6040516313f2e28560e11b815263ffffffff87811660048301528316602482015291602083604481895afa928315610df3575f936142b8575b506140be966117e36020969594936117f19361ffff6040519889958b87015260a01c166040850152606084015260808084015260a0830190614426565b03925af1908115610df35760049260209261429d575b5060405163fc2a88c360e01b815292839182905afa908115610df3575f9161426b575b5060206040516141078282612fb7565b5f81525f36813760016001600160801b03600654166040519061412982612f81565b81525f848201818152604080840185815260608501968752888452601188529220925183549151925192151560801b60ff60801b166001600160801b039091166001600160901b0319909216919091171790151560881b60ff60881b161781559151805192909101906001600160401b03831161043057600160401b83116104305783908254848455808510614243575b5001905f52825f205f5b8381106142315750505050916020917fc6f253de430148d7581a940518a73a6d98efc85ea9162887a3918443ba67c2127f2b9e41ab9949392f3d5b732fc3ad6794d6e7bff5dc7da34f7bbcd02a2cb52b4d946001600160801b0360065416604051908152a2915050613f0f565b825182820155918401916001016141c4565b835f5284835f2091820191015b81811061425d57506141ba565b5f8155869350600101614250565b90506020813d602011614295575b8161428660209383612fb7565b8101031261034757515f6140f7565b3d9150614279565b6142b390833d8511610dec57610de48183612fb7565b6140d4565b94939250906020853d6020116142ee575b816142d660209383612fb7565b810103126103475793519293919291906140be614081565b3d91506142c9565b90506020813d602011614320575b8161431160209383612fb7565b8101031261034757515f61400b565b3d9150614304565b9091506020813d602011614354575b8161434460209383612fb7565b810103126103475751905f613fb4565b3d9150614337565b84614367828461342e565b50546001600160a01b031614611adc57600101613d97565b8461438a828461342e565b50546001600160a01b0316146135fb57600101613d68565b505050565b50600481541015613d5f565b5050565b5060207f2b9e41ab9949392f3d5b732fc3ad6794d6e7bff5dc7da34f7bbcd02a2cb52b4d91604051908152a2565b90506020813d60201161440f575b8161440060209383612fb7565b8101031261034757515f613d21565b3d91506143f3565b63e1163aab60e01b5f5260045ffd5b805180835260209291819084018484015e5f828201840152601f01601f191601019056fea2646970667358221220fddb8504f1760743ab823809cca2779dc731f8bdab134d790ad89643e949ccb264736f6c634300081e0033","linkReferences":{}},"methodIdentifiers":{"BURN_SHARE()":"93b998fb","DEAD_ADDRESS()":"4e6fd6c4","DEV_SHARE()":"029dd6ba","ENTRY_FEE_BONE()":"c1609e92","FUNDING_SHARE()":"7649002a","MAX_PLAYERS()":"4411b3eb","PERMIT2()":"6afdd850","POINTS_PER_ENTRY()":"d968f51b","POOL_MANAGER()":"62308e85","SEPOLIA_WETH()":"b235af0e","WINNERS_SHARE()":"0c154afe","allowedChains(uint64)":"ed0b4814","autoCompleteRound(uint256)":"ddd3c624","boneEthPoolKey()":"71b859d6","boneToken()":"b7753a56","callbackGasLimit()":"24f74697","ccipReceive((bytes32,uint64,bytes,bytes,(address,uint256)[]))":"85572ffb","chainContracts(uint64)":"bb7e0bef","changeAdmin(address)":"8f283970","completeRound(uint256)":"625b8186","configuredChains(uint256)":"9bf3f802","contractAdmin()":"77955245","currentChainSelector()":"3d54cb6f","currentRoundId()":"9cbe5efd","devAddress()":"3ad10ef6","distributePrizes(uint256)":"6ca3fc3b","emergencySelectWinners(uint256)":"02869985","emergencyWithdrawETH()":"84536017","emergencyWithdrawTokens(address,uint256)":"917bb998","enterWithBone()":"4d7614b1","enterWithETH()":"84182daf","entriesCount(address)":"eafa02b4","fundVRFWithLink(uint256)":"247cf05d","fundingAddresses(uint256)":"8984d769","getAdmin()":"6e9960c3","getBalance()":"12065fe0","getBonePriceFromPool()":"74ed628a","getCurrentRoundPlayers()":"e9d97422","getETHAmountForEntry()":"10b78939","getETHNeededForBone(uint256)":"bf2e5ae0","getLinkToken()":"e76d5168","getPoolKeyInfo()":"285f6648","getPoolPriceInfo()":"b2db17d3","getRoundInfo(uint256)":"88c3ffb0","getRouter()":"b0f479a1","getVRFFundingStatus()":"7615aeb9","i_vrfV2PlusWrapper()":"9ed0868d","isETHAmountSufficient(uint256)":"f683cbcd","lotteryRounds(uint256)":"b7285ccb","maxSlippage()":"8c04166f","nftContract()":"d56d229d","numWords()":"7ccfd7fc","pauseContract()":"439766ce","paused()":"5c975abb","pendingWithdrawalsBone(address)":"52031975","permit2()":"12261ee7","playerPoints(address)":"9b211fc4","poolManager()":"dc4c90d3","rawFulfillRandomWords(uint256,uint256[])":"1fe543e3","requestConfirmations()":"b0fb162f","setChainContract(uint64,address)":"ed766984","setVRFConfig(uint32,uint16,uint32)":"7b450dba","supportsInterface(bytes4)":"01ffc9a7","totalWinningsBone(address)":"b2110fb8","unpauseContract()":"b33712c5","updatePoolKey((address,address,uint24,int24,address))":"77583b4e","updateSwapParameters(uint256)":"ca55704e","vrfRequests(uint256)":"1a1d9252","withdraw()":"3ccfd60b"},"id":64}